{
	"stacking.sol": {
		"Staking": {
			"abi": [
				{
					"inputs": [
						{
							"internalType": "address",
							"name": "stakingToken",
							"type": "address"
						}
					],
					"stateMutability": "nonpayable",
					"type": "constructor"
				},
				{
					"inputs": [],
					"name": "Staking__NeedsMoreThanZero",
					"type": "error"
				},
				{
					"inputs": [],
					"name": "Staking__TransferFailed",
					"type": "error"
				},
				{
					"inputs": [],
					"name": "Withdraw__TransferFailed",
					"type": "error"
				},
				{
					"inputs": [
						{
							"internalType": "address",
							"name": "account",
							"type": "address"
						}
					],
					"name": "checkBalance",
					"outputs": [
						{
							"internalType": "uint256",
							"name": "",
							"type": "uint256"
						}
					],
					"stateMutability": "view",
					"type": "function"
				},
				{
					"inputs": [
						{
							"internalType": "address",
							"name": "account",
							"type": "address"
						}
					],
					"name": "getStaked",
					"outputs": [
						{
							"internalType": "uint256",
							"name": "",
							"type": "uint256"
						}
					],
					"stateMutability": "view",
					"type": "function"
				},
				{
					"inputs": [
						{
							"internalType": "address",
							"name": "",
							"type": "address"
						}
					],
					"name": "s_balances",
					"outputs": [
						{
							"internalType": "uint256",
							"name": "",
							"type": "uint256"
						}
					],
					"stateMutability": "view",
					"type": "function"
				},
				{
					"inputs": [
						{
							"internalType": "address",
							"name": "",
							"type": "address"
						}
					],
					"name": "s_minStackTime",
					"outputs": [
						{
							"internalType": "uint256",
							"name": "",
							"type": "uint256"
						}
					],
					"stateMutability": "view",
					"type": "function"
				},
				{
					"inputs": [],
					"name": "s_stakingToken",
					"outputs": [
						{
							"internalType": "contract IERC20",
							"name": "",
							"type": "address"
						}
					],
					"stateMutability": "view",
					"type": "function"
				},
				{
					"inputs": [
						{
							"internalType": "address",
							"name": "",
							"type": "address"
						}
					],
					"name": "s_unstackTime",
					"outputs": [
						{
							"internalType": "uint256",
							"name": "",
							"type": "uint256"
						}
					],
					"stateMutability": "view",
					"type": "function"
				},
				{
					"inputs": [
						{
							"internalType": "uint256",
							"name": "amount",
							"type": "uint256"
						},
						{
							"internalType": "uint16",
							"name": "stakeTime",
							"type": "uint16"
						}
					],
					"name": "stake",
					"outputs": [
						{
							"internalType": "string",
							"name": "",
							"type": "string"
						}
					],
					"stateMutability": "nonpayable",
					"type": "function"
				},
				{
					"inputs": [],
					"name": "withdraw",
					"outputs": [
						{
							"internalType": "string",
							"name": "",
							"type": "string"
						}
					],
					"stateMutability": "payable",
					"type": "function"
				}
			],
			"devdoc": {
				"kind": "dev",
				"methods": {},
				"version": 1
			},
			"evm": {
				"assembly": "    /* \"stacking.sol\":283:3764  contract Staking is ReentrancyGuard {... */\n  mstore(0x40, 0x80)\n    /* \"stacking.sol\":672:760  constructor(address stakingToken) {... */\n  callvalue\n  dup1\n  iszero\n  tag_1\n  jumpi\n  0x00\n  dup1\n  revert\ntag_1:\n  pop\n  mload(0x40)\n  sub(codesize, bytecodeSize)\n  dup1\n  bytecodeSize\n  dup4\n  codecopy\n  dup2\n  dup2\n  add\n  0x40\n  mstore\n  dup2\n  add\n  swap1\n  tag_2\n  swap2\n  swap1\n  tag_3\n  jump\t// in\ntag_2:\n    /* \"@openzeppelin/contracts/security/ReentrancyGuard.sol\":1716:1717  1 */\n  0x01\n    /* \"@openzeppelin/contracts/security/ReentrancyGuard.sol\":1821:1828  _status */\n  0x00\n    /* \"@openzeppelin/contracts/security/ReentrancyGuard.sol\":1821:1843  _status = _NOT_ENTERED */\n  dup2\n  swap1\n  sstore\n  pop\n    /* \"stacking.sol\":740:752  stakingToken */\n  dup1\n    /* \"stacking.sol\":716:730  s_stakingToken */\n  0x01\n  0x00\n    /* \"stacking.sol\":716:753  s_stakingToken = IERC20(stakingToken) */\n  0x0100\n  exp\n  dup2\n  sload\n  dup2\n  0xffffffffffffffffffffffffffffffffffffffff\n  mul\n  not\n  and\n  swap1\n  dup4\n  0xffffffffffffffffffffffffffffffffffffffff\n  and\n  mul\n  or\n  swap1\n  sstore\n  pop\n    /* \"stacking.sol\":672:760  constructor(address stakingToken) {... */\n  pop\n    /* \"stacking.sol\":283:3764  contract Staking is ReentrancyGuard {... */\n  jump(tag_8)\n    /* \"#utility.yul\":88:205   */\ntag_10:\n    /* \"#utility.yul\":197:198   */\n  0x00\n    /* \"#utility.yul\":194:195   */\n  dup1\n    /* \"#utility.yul\":187:199   */\n  revert\n    /* \"#utility.yul\":334:460   */\ntag_12:\n    /* \"#utility.yul\":371:378   */\n  0x00\n    /* \"#utility.yul\":411:453   */\n  0xffffffffffffffffffffffffffffffffffffffff\n    /* \"#utility.yul\":404:409   */\n  dup3\n    /* \"#utility.yul\":400:454   */\n  and\n    /* \"#utility.yul\":389:454   */\n  swap1\n  pop\n    /* \"#utility.yul\":334:460   */\n  swap2\n  swap1\n  pop\n  jump\t// out\n    /* \"#utility.yul\":466:562   */\ntag_13:\n    /* \"#utility.yul\":503:510   */\n  0x00\n    /* \"#utility.yul\":532:556   */\n  tag_22\n    /* \"#utility.yul\":550:555   */\n  dup3\n    /* \"#utility.yul\":532:556   */\n  tag_12\n  jump\t// in\ntag_22:\n    /* \"#utility.yul\":521:556   */\n  swap1\n  pop\n    /* \"#utility.yul\":466:562   */\n  swap2\n  swap1\n  pop\n  jump\t// out\n    /* \"#utility.yul\":568:690   */\ntag_14:\n    /* \"#utility.yul\":641:665   */\n  tag_24\n    /* \"#utility.yul\":659:664   */\n  dup2\n    /* \"#utility.yul\":641:665   */\n  tag_13\n  jump\t// in\ntag_24:\n    /* \"#utility.yul\":634:639   */\n  dup2\n    /* \"#utility.yul\":631:666   */\n  eq\n    /* \"#utility.yul\":621:684   */\n  tag_25\n  jumpi\n    /* \"#utility.yul\":680:681   */\n  0x00\n    /* \"#utility.yul\":677:678   */\n  dup1\n    /* \"#utility.yul\":670:682   */\n  revert\n    /* \"#utility.yul\":621:684   */\ntag_25:\n    /* \"#utility.yul\":568:690   */\n  pop\n  jump\t// out\n    /* \"#utility.yul\":696:839   */\ntag_15:\n    /* \"#utility.yul\":753:758   */\n  0x00\n    /* \"#utility.yul\":784:790   */\n  dup2\n    /* \"#utility.yul\":778:791   */\n  mload\n    /* \"#utility.yul\":769:791   */\n  swap1\n  pop\n    /* \"#utility.yul\":800:833   */\n  tag_27\n    /* \"#utility.yul\":827:832   */\n  dup2\n    /* \"#utility.yul\":800:833   */\n  tag_14\n  jump\t// in\ntag_27:\n    /* \"#utility.yul\":696:839   */\n  swap3\n  swap2\n  pop\n  pop\n  jump\t// out\n    /* \"#utility.yul\":845:1196   */\ntag_3:\n    /* \"#utility.yul\":915:921   */\n  0x00\n    /* \"#utility.yul\":964:966   */\n  0x20\n    /* \"#utility.yul\":952:961   */\n  dup3\n    /* \"#utility.yul\":943:950   */\n  dup5\n    /* \"#utility.yul\":939:962   */\n  sub\n    /* \"#utility.yul\":935:967   */\n  slt\n    /* \"#utility.yul\":932:1051   */\n  iszero\n  tag_29\n  jumpi\n    /* \"#utility.yul\":970:1049   */\n  tag_30\n  tag_10\n  jump\t// in\ntag_30:\n    /* \"#utility.yul\":932:1051   */\ntag_29:\n    /* \"#utility.yul\":1090:1091   */\n  0x00\n    /* \"#utility.yul\":1115:1179   */\n  tag_31\n    /* \"#utility.yul\":1171:1178   */\n  dup5\n    /* \"#utility.yul\":1162:1168   */\n  dup3\n    /* \"#utility.yul\":1151:1160   */\n  dup6\n    /* \"#utility.yul\":1147:1169   */\n  add\n    /* \"#utility.yul\":1115:1179   */\n  tag_15\n  jump\t// in\ntag_31:\n    /* \"#utility.yul\":1105:1179   */\n  swap2\n  pop\n    /* \"#utility.yul\":1061:1189   */\n  pop\n    /* \"#utility.yul\":845:1196   */\n  swap3\n  swap2\n  pop\n  pop\n  jump\t// out\n    /* \"stacking.sol\":283:3764  contract Staking is ReentrancyGuard {... */\ntag_8:\n  dataSize(sub_0)\n  dup1\n  dataOffset(sub_0)\n  0x00\n  codecopy\n  0x00\n  return\nstop\n\nsub_0: assembly {\n        /* \"stacking.sol\":283:3764  contract Staking is ReentrancyGuard {... */\n      mstore(0x40, 0x80)\n      jumpi(tag_1, lt(calldatasize, 0x04))\n      shr(0xe0, calldataload(0x00))\n      dup1\n      0x58fe020c\n      gt\n      tag_10\n      jumpi\n      dup1\n      0x58fe020c\n      eq\n      tag_6\n      jumpi\n      dup1\n      0x5f515226\n      eq\n      tag_7\n      jumpi\n      dup1\n      0xab32eb69\n      eq\n      tag_8\n      jumpi\n      dup1\n      0xadca9b72\n      eq\n      tag_9\n      jumpi\n      jump(tag_1)\n    tag_10:\n      dup1\n      0x399080ec\n      eq\n      tag_2\n      jumpi\n      dup1\n      0x3ccfd60b\n      eq\n      tag_3\n      jumpi\n      dup1\n      0x42ea02c1\n      eq\n      tag_4\n      jumpi\n      dup1\n      0x483174b6\n      eq\n      tag_5\n      jumpi\n    tag_1:\n      0x00\n      dup1\n      revert\n        /* \"stacking.sol\":3520:3629  function getStaked(address account) public view returns (uint256) {... */\n    tag_2:\n      callvalue\n      dup1\n      iszero\n      tag_11\n      jumpi\n      0x00\n      dup1\n      revert\n    tag_11:\n      pop\n      tag_12\n      0x04\n      dup1\n      calldatasize\n      sub\n      dup2\n      add\n      swap1\n      tag_13\n      swap2\n      swap1\n      tag_14\n      jump\t// in\n    tag_13:\n      tag_15\n      jump\t// in\n    tag_12:\n      mload(0x40)\n      tag_16\n      swap2\n      swap1\n      tag_17\n      jump\t// in\n    tag_16:\n      mload(0x40)\n      dup1\n      swap2\n      sub\n      swap1\n      return\n        /* \"stacking.sol\":1994:3514  function withdraw() external payable returns (string memory) {... */\n    tag_3:\n      tag_18\n      tag_19\n      jump\t// in\n    tag_18:\n      mload(0x40)\n      tag_20\n      swap2\n      swap1\n      tag_21\n      jump\t// in\n    tag_20:\n      mload(0x40)\n      dup1\n      swap2\n      sub\n      swap1\n      return\n        /* \"stacking.sol\":766:1988  function stake(uint256 amount, uint16 stakeTime) external moreThanZero(amount) returns (string memory) {... */\n    tag_4:\n      callvalue\n      dup1\n      iszero\n      tag_22\n      jumpi\n      0x00\n      dup1\n      revert\n    tag_22:\n      pop\n      tag_23\n      0x04\n      dup1\n      calldatasize\n      sub\n      dup2\n      add\n      swap1\n      tag_24\n      swap2\n      swap1\n      tag_25\n      jump\t// in\n    tag_24:\n      tag_26\n      jump\t// in\n    tag_23:\n      mload(0x40)\n      tag_27\n      swap2\n      swap1\n      tag_21\n      jump\t// in\n    tag_27:\n      mload(0x40)\n      dup1\n      swap2\n      sub\n      swap1\n      return\n        /* \"stacking.sol\":413:461  mapping(address => uint256) public s_unstackTime */\n    tag_5:\n      callvalue\n      dup1\n      iszero\n      tag_28\n      jumpi\n      0x00\n      dup1\n      revert\n    tag_28:\n      pop\n      tag_29\n      0x04\n      dup1\n      calldatasize\n      sub\n      dup2\n      add\n      swap1\n      tag_30\n      swap2\n      swap1\n      tag_14\n      jump\t// in\n    tag_30:\n      tag_31\n      jump\t// in\n    tag_29:\n      mload(0x40)\n      tag_32\n      swap2\n      swap1\n      tag_17\n      jump\t// in\n    tag_32:\n      mload(0x40)\n      dup1\n      swap2\n      sub\n      swap1\n      return\n        /* \"stacking.sol\":468:517  mapping(address => uint256) public s_minStackTime */\n    tag_6:\n      callvalue\n      dup1\n      iszero\n      tag_33\n      jumpi\n      0x00\n      dup1\n      revert\n    tag_33:\n      pop\n      tag_34\n      0x04\n      dup1\n      calldatasize\n      sub\n      dup2\n      add\n      swap1\n      tag_35\n      swap2\n      swap1\n      tag_14\n      jump\t// in\n    tag_35:\n      tag_36\n      jump\t// in\n    tag_34:\n      mload(0x40)\n      tag_37\n      swap2\n      swap1\n      tag_17\n      jump\t// in\n    tag_37:\n      mload(0x40)\n      dup1\n      swap2\n      sub\n      swap1\n      return\n        /* \"stacking.sol\":3635:3762  function checkBalance (address account) public view returns (uint256) {... */\n    tag_7:\n      callvalue\n      dup1\n      iszero\n      tag_38\n      jumpi\n      0x00\n      dup1\n      revert\n    tag_38:\n      pop\n      tag_39\n      0x04\n      dup1\n      calldatasize\n      sub\n      dup2\n      add\n      swap1\n      tag_40\n      swap2\n      swap1\n      tag_14\n      jump\t// in\n    tag_40:\n      tag_41\n      jump\t// in\n    tag_39:\n      mload(0x40)\n      tag_42\n      swap2\n      swap1\n      tag_17\n      jump\t// in\n    tag_42:\n      mload(0x40)\n      dup1\n      swap2\n      sub\n      swap1\n      return\n        /* \"stacking.sol\":361:406  mapping(address => uint256) public s_balances */\n    tag_8:\n      callvalue\n      dup1\n      iszero\n      tag_43\n      jumpi\n      0x00\n      dup1\n      revert\n    tag_43:\n      pop\n      tag_44\n      0x04\n      dup1\n      calldatasize\n      sub\n      dup2\n      add\n      swap1\n      tag_45\n      swap2\n      swap1\n      tag_14\n      jump\t// in\n    tag_45:\n      tag_46\n      jump\t// in\n    tag_44:\n      mload(0x40)\n      tag_47\n      swap2\n      swap1\n      tag_17\n      jump\t// in\n    tag_47:\n      mload(0x40)\n      dup1\n      swap2\n      sub\n      swap1\n      return\n        /* \"stacking.sol\":325:353  IERC20 public s_stakingToken */\n    tag_9:\n      callvalue\n      dup1\n      iszero\n      tag_48\n      jumpi\n      0x00\n      dup1\n      revert\n    tag_48:\n      pop\n      tag_49\n      tag_50\n      jump\t// in\n    tag_49:\n      mload(0x40)\n      tag_51\n      swap2\n      swap1\n      tag_52\n      jump\t// in\n    tag_51:\n      mload(0x40)\n      dup1\n      swap2\n      sub\n      swap1\n      return\n        /* \"stacking.sol\":3520:3629  function getStaked(address account) public view returns (uint256) {... */\n    tag_15:\n        /* \"stacking.sol\":3577:3584  uint256 */\n      0x00\n        /* \"stacking.sol\":3603:3613  s_balances */\n      0x02\n        /* \"stacking.sol\":3603:3622  s_balances[account] */\n      0x00\n        /* \"stacking.sol\":3614:3621  account */\n      dup4\n        /* \"stacking.sol\":3603:3622  s_balances[account] */\n      0xffffffffffffffffffffffffffffffffffffffff\n      and\n      0xffffffffffffffffffffffffffffffffffffffff\n      and\n      dup2\n      mstore\n      0x20\n      add\n      swap1\n      dup2\n      mstore\n      0x20\n      add\n      0x00\n      keccak256\n      sload\n        /* \"stacking.sol\":3596:3622  return s_balances[account] */\n      swap1\n      pop\n        /* \"stacking.sol\":3520:3629  function getStaked(address account) public view returns (uint256) {... */\n      swap2\n      swap1\n      pop\n      jump\t// out\n        /* \"stacking.sol\":1994:3514  function withdraw() external payable returns (string memory) {... */\n    tag_19:\n        /* \"stacking.sol\":2040:2053  string memory */\n      0x60\n        /* \"stacking.sol\":2066:2081  uint256 balance */\n      0x00\n        /* \"stacking.sol\":2084:2094  s_balances */\n      0x02\n        /* \"stacking.sol\":2084:2106  s_balances[msg.sender] */\n      0x00\n        /* \"stacking.sol\":2095:2105  msg.sender */\n      caller\n        /* \"stacking.sol\":2084:2106  s_balances[msg.sender] */\n      0xffffffffffffffffffffffffffffffffffffffff\n      and\n      0xffffffffffffffffffffffffffffffffffffffff\n      and\n      dup2\n      mstore\n      0x20\n      add\n      swap1\n      dup2\n      mstore\n      0x20\n      add\n      0x00\n      keccak256\n      sload\n        /* \"stacking.sol\":2066:2106  uint256 balance = s_balances[msg.sender] */\n      swap1\n      pop\n        /* \"stacking.sol\":2136:2139  300 */\n      0x012c\n        /* \"stacking.sol\":2125:2132  balance */\n      dup2\n        /* \"stacking.sol\":2125:2139  balance >= 300 */\n      lt\n      iszero\n        /* \"stacking.sol\":2117:2171  require(balance >= 300, \"You have not enough balance\") */\n      tag_55\n      jumpi\n      mload(0x40)\n      0x08c379a000000000000000000000000000000000000000000000000000000000\n      dup2\n      mstore\n      0x04\n      add\n      tag_56\n      swap1\n      tag_57\n      jump\t// in\n    tag_56:\n      mload(0x40)\n      dup1\n      swap2\n      sub\n      swap1\n      revert\n    tag_55:\n        /* \"stacking.sol\":2218:2233  block.timestamp */\n      timestamp\n        /* \"stacking.sol\":2189:2202  s_unstackTime */\n      0x03\n        /* \"stacking.sol\":2189:2214  s_unstackTime[msg.sender] */\n      0x00\n        /* \"stacking.sol\":2203:2213  msg.sender */\n      caller\n        /* \"stacking.sol\":2189:2214  s_unstackTime[msg.sender] */\n      0xffffffffffffffffffffffffffffffffffffffff\n      and\n      0xffffffffffffffffffffffffffffffffffffffff\n      and\n      dup2\n      mstore\n      0x20\n      add\n      swap1\n      dup2\n      mstore\n      0x20\n      add\n      0x00\n      keccak256\n      sload\n        /* \"stacking.sol\":2189:2233  s_unstackTime[msg.sender] <= block.timestamp */\n      gt\n      iszero\n        /* \"stacking.sol\":2181:2272  require(s_unstackTime[msg.sender] <= block.timestamp, \"Your staking time is not completed\") */\n      tag_58\n      jumpi\n      mload(0x40)\n      0x08c379a000000000000000000000000000000000000000000000000000000000\n      dup2\n      mstore\n      0x04\n      add\n      tag_59\n      swap1\n      tag_60\n      jump\t// in\n    tag_59:\n      mload(0x40)\n      dup1\n      swap2\n      sub\n      swap1\n      revert\n    tag_58:\n        /* \"stacking.sol\":2283:2300  uint256 bonusTime */\n      0x00\n        /* \"stacking.sol\":2321:2334  s_unstackTime */\n      0x03\n        /* \"stacking.sol\":2321:2346  s_unstackTime[msg.sender] */\n      0x00\n        /* \"stacking.sol\":2335:2345  msg.sender */\n      caller\n        /* \"stacking.sol\":2321:2346  s_unstackTime[msg.sender] */\n      0xffffffffffffffffffffffffffffffffffffffff\n      and\n      0xffffffffffffffffffffffffffffffffffffffff\n      and\n      dup2\n      mstore\n      0x20\n      add\n      swap1\n      dup2\n      mstore\n      0x20\n      add\n      0x00\n      keccak256\n      sload\n        /* \"stacking.sol\":2303:2318  block.timestamp */\n      timestamp\n        /* \"stacking.sol\":2303:2346  block.timestamp - s_unstackTime[msg.sender] */\n      tag_61\n      swap2\n      swap1\n      tag_62\n      jump\t// in\n    tag_61:\n        /* \"stacking.sol\":2283:2346  uint256 bonusTime = block.timestamp - s_unstackTime[msg.sender] */\n      swap1\n      pop\n        /* \"stacking.sol\":2432:2433  3 */\n      0x03\n        /* \"stacking.sol\":2402:2416  s_minStackTime */\n      0x04\n        /* \"stacking.sol\":2402:2428  s_minStackTime[msg.sender] */\n      0x00\n        /* \"stacking.sol\":2417:2427  msg.sender */\n      caller\n        /* \"stacking.sol\":2402:2428  s_minStackTime[msg.sender] */\n      0xffffffffffffffffffffffffffffffffffffffff\n      and\n      0xffffffffffffffffffffffffffffffffffffffff\n      and\n      dup2\n      mstore\n      0x20\n      add\n      swap1\n      dup2\n      mstore\n      0x20\n      add\n      0x00\n      keccak256\n      sload\n        /* \"stacking.sol\":2402:2433  s_minStackTime[msg.sender] == 3 */\n      sub\n        /* \"stacking.sol\":2399:2717  if(s_minStackTime[msg.sender] == 3){... */\n      tag_63\n      jumpi\n        /* \"stacking.sol\":2487:2490  100 */\n      0x64\n        /* \"stacking.sol\":2481:2483  30 */\n      0x1e\n        /* \"stacking.sol\":2471:2478  balance */\n      dup4\n        /* \"stacking.sol\":2471:2483  balance * 30 */\n      tag_64\n      swap2\n      swap1\n      tag_65\n      jump\t// in\n    tag_64:\n        /* \"stacking.sol\":2470:2490  (balance * 30) / 100 */\n      tag_66\n      swap2\n      swap1\n      tag_67\n      jump\t// in\n    tag_66:\n        /* \"stacking.sol\":2458:2465  balance */\n      dup3\n        /* \"stacking.sol\":2458:2492  balance + ( (balance * 30) / 100 ) */\n      tag_68\n      swap2\n      swap1\n      tag_69\n      jump\t// in\n    tag_68:\n        /* \"stacking.sol\":2448:2492  balance = balance + ( (balance * 30) / 100 ) */\n      swap2\n      pop\n        /* \"stacking.sol\":2399:2717  if(s_minStackTime[msg.sender] == 3){... */\n      jump(tag_70)\n    tag_63:\n        /* \"stacking.sol\":2550:2551  6 */\n      0x06\n        /* \"stacking.sol\":2520:2534  s_minStackTime */\n      0x04\n        /* \"stacking.sol\":2520:2546  s_minStackTime[msg.sender] */\n      0x00\n        /* \"stacking.sol\":2535:2545  msg.sender */\n      caller\n        /* \"stacking.sol\":2520:2546  s_minStackTime[msg.sender] */\n      0xffffffffffffffffffffffffffffffffffffffff\n      and\n      0xffffffffffffffffffffffffffffffffffffffff\n      and\n      dup2\n      mstore\n      0x20\n      add\n      swap1\n      dup2\n      mstore\n      0x20\n      add\n      0x00\n      keccak256\n      sload\n        /* \"stacking.sol\":2520:2551  s_minStackTime[msg.sender] == 6 */\n      sub\n        /* \"stacking.sol\":2517:2717  if(s_minStackTime[msg.sender] == 6){... */\n      tag_71\n      jumpi\n        /* \"stacking.sol\":2605:2608  100 */\n      0x64\n        /* \"stacking.sol\":2599:2601  60 */\n      0x3c\n        /* \"stacking.sol\":2589:2596  balance */\n      dup4\n        /* \"stacking.sol\":2589:2601  balance * 60 */\n      tag_72\n      swap2\n      swap1\n      tag_65\n      jump\t// in\n    tag_72:\n        /* \"stacking.sol\":2588:2608  (balance * 60) / 100 */\n      tag_73\n      swap2\n      swap1\n      tag_67\n      jump\t// in\n    tag_73:\n        /* \"stacking.sol\":2576:2583  balance */\n      dup3\n        /* \"stacking.sol\":2576:2610  balance + ( (balance * 60) / 100 ) */\n      tag_74\n      swap2\n      swap1\n      tag_69\n      jump\t// in\n    tag_74:\n        /* \"stacking.sol\":2566:2610  balance = balance + ( (balance * 60) / 100 ) */\n      swap2\n      pop\n        /* \"stacking.sol\":2517:2717  if(s_minStackTime[msg.sender] == 6){... */\n      jump(tag_75)\n    tag_71:\n        /* \"stacking.sol\":2668:2670  12 */\n      0x0c\n        /* \"stacking.sol\":2638:2652  s_minStackTime */\n      0x04\n        /* \"stacking.sol\":2638:2664  s_minStackTime[msg.sender] */\n      0x00\n        /* \"stacking.sol\":2653:2663  msg.sender */\n      caller\n        /* \"stacking.sol\":2638:2664  s_minStackTime[msg.sender] */\n      0xffffffffffffffffffffffffffffffffffffffff\n      and\n      0xffffffffffffffffffffffffffffffffffffffff\n      and\n      dup2\n      mstore\n      0x20\n      add\n      swap1\n      dup2\n      mstore\n      0x20\n      add\n      0x00\n      keccak256\n      sload\n        /* \"stacking.sol\":2638:2670  s_minStackTime[msg.sender] == 12 */\n      sub\n        /* \"stacking.sol\":2635:2717  if(s_minStackTime[msg.sender] == 12){... */\n      tag_76\n      jumpi\n        /* \"stacking.sol\":2705:2706  2 */\n      0x02\n        /* \"stacking.sol\":2695:2702  balance */\n      dup3\n        /* \"stacking.sol\":2695:2706  balance * 2 */\n      tag_77\n      swap2\n      swap1\n      tag_65\n      jump\t// in\n    tag_77:\n        /* \"stacking.sol\":2685:2706  balance = balance * 2 */\n      swap2\n      pop\n        /* \"stacking.sol\":2635:2717  if(s_minStackTime[msg.sender] == 12){... */\n    tag_76:\n        /* \"stacking.sol\":2517:2717  if(s_minStackTime[msg.sender] == 6){... */\n    tag_75:\n        /* \"stacking.sol\":2399:2717  if(s_minStackTime[msg.sender] == 3){... */\n    tag_70:\n        /* \"stacking.sol\":2812:2827  block.timestamp */\n      timestamp\n        /* \"stacking.sol\":2797:2807  3* 30 days */\n      0x76a700\n        /* \"stacking.sol\":2778:2793  block.timestamp */\n      timestamp\n        /* \"stacking.sol\":2778:2808  block.timestamp + (3* 30 days) */\n      tag_78\n      swap2\n      swap1\n      tag_69\n      jump\t// in\n    tag_78:\n        /* \"stacking.sol\":2777:2827  (block.timestamp + (3* 30 days)) - block.timestamp */\n      tag_79\n      swap2\n      swap1\n      tag_62\n      jump\t// in\n    tag_79:\n        /* \"stacking.sol\":2764:2773  bonusTime */\n      dup2\n        /* \"stacking.sol\":2764:2827  bonusTime >= (block.timestamp + (3* 30 days)) - block.timestamp */\n      lt\n        /* \"stacking.sol\":2761:3174  if(bonusTime >= (block.timestamp + (3* 30 days)) - block.timestamp){... */\n      tag_80\n      jumpi\n        /* \"stacking.sol\":2881:2884  100 */\n      0x64\n        /* \"stacking.sol\":2875:2877  30 */\n      0x1e\n        /* \"stacking.sol\":2865:2872  balance */\n      dup4\n        /* \"stacking.sol\":2865:2877  balance * 30 */\n      tag_81\n      swap2\n      swap1\n      tag_65\n      jump\t// in\n    tag_81:\n        /* \"stacking.sol\":2864:2884  (balance * 30) / 100 */\n      tag_82\n      swap2\n      swap1\n      tag_67\n      jump\t// in\n    tag_82:\n        /* \"stacking.sol\":2852:2859  balance */\n      dup3\n        /* \"stacking.sol\":2852:2886  balance + ( (balance * 30) / 100 ) */\n      tag_83\n      swap2\n      swap1\n      tag_69\n      jump\t// in\n    tag_83:\n        /* \"stacking.sol\":2842:2886  balance = balance + ( (balance * 30) / 100 ) */\n      swap2\n      pop\n        /* \"stacking.sol\":2761:3174  if(bonusTime >= (block.timestamp + (3* 30 days)) - block.timestamp){... */\n      jump(tag_84)\n    tag_80:\n        /* \"stacking.sol\":2962:2977  block.timestamp */\n      timestamp\n        /* \"stacking.sol\":2947:2957  3* 30 days */\n      0x76a700\n        /* \"stacking.sol\":2928:2943  block.timestamp */\n      timestamp\n        /* \"stacking.sol\":2928:2958  block.timestamp + (3* 30 days) */\n      tag_85\n      swap2\n      swap1\n      tag_69\n      jump\t// in\n    tag_85:\n        /* \"stacking.sol\":2927:2977  (block.timestamp + (3* 30 days)) - block.timestamp */\n      tag_86\n      swap2\n      swap1\n      tag_62\n      jump\t// in\n    tag_86:\n        /* \"stacking.sol\":2914:2923  bonusTime */\n      dup2\n        /* \"stacking.sol\":2914:2977  bonusTime >= (block.timestamp + (3* 30 days)) - block.timestamp */\n      lt\n        /* \"stacking.sol\":2911:3174  if(bonusTime >= (block.timestamp + (3* 30 days)) - block.timestamp){... */\n      tag_87\n      jumpi\n        /* \"stacking.sol\":3031:3034  100 */\n      0x64\n        /* \"stacking.sol\":3025:3027  60 */\n      0x3c\n        /* \"stacking.sol\":3015:3022  balance */\n      dup4\n        /* \"stacking.sol\":3015:3027  balance * 60 */\n      tag_88\n      swap2\n      swap1\n      tag_65\n      jump\t// in\n    tag_88:\n        /* \"stacking.sol\":3014:3034  (balance * 60) / 100 */\n      tag_89\n      swap2\n      swap1\n      tag_67\n      jump\t// in\n    tag_89:\n        /* \"stacking.sol\":3002:3009  balance */\n      dup3\n        /* \"stacking.sol\":3002:3036  balance + ( (balance * 60) / 100 ) */\n      tag_90\n      swap2\n      swap1\n      tag_69\n      jump\t// in\n    tag_90:\n        /* \"stacking.sol\":2992:3036  balance = balance + ( (balance * 60) / 100 ) */\n      swap2\n      pop\n        /* \"stacking.sol\":2911:3174  if(bonusTime >= (block.timestamp + (3* 30 days)) - block.timestamp){... */\n      jump(tag_91)\n    tag_87:\n        /* \"stacking.sol\":3112:3127  block.timestamp */\n      timestamp\n        /* \"stacking.sol\":3097:3107  3* 30 days */\n      0x76a700\n        /* \"stacking.sol\":3078:3093  block.timestamp */\n      timestamp\n        /* \"stacking.sol\":3078:3108  block.timestamp + (3* 30 days) */\n      tag_92\n      swap2\n      swap1\n      tag_69\n      jump\t// in\n    tag_92:\n        /* \"stacking.sol\":3077:3127  (block.timestamp + (3* 30 days)) - block.timestamp */\n      tag_93\n      swap2\n      swap1\n      tag_62\n      jump\t// in\n    tag_93:\n        /* \"stacking.sol\":3064:3073  bonusTime */\n      dup2\n        /* \"stacking.sol\":3064:3127  bonusTime >= (block.timestamp + (3* 30 days)) - block.timestamp */\n      lt\n        /* \"stacking.sol\":3061:3174  if(bonusTime >= (block.timestamp + (3* 30 days)) - block.timestamp){... */\n      tag_94\n      jumpi\n        /* \"stacking.sol\":3162:3163  2 */\n      0x02\n        /* \"stacking.sol\":3152:3159  balance */\n      dup3\n        /* \"stacking.sol\":3152:3163  balance * 2 */\n      tag_95\n      swap2\n      swap1\n      tag_65\n      jump\t// in\n    tag_95:\n        /* \"stacking.sol\":3142:3163  balance = balance * 2 */\n      swap2\n      pop\n        /* \"stacking.sol\":3061:3174  if(bonusTime >= (block.timestamp + (3* 30 days)) - block.timestamp){... */\n    tag_94:\n        /* \"stacking.sol\":2911:3174  if(bonusTime >= (block.timestamp + (3* 30 days)) - block.timestamp){... */\n    tag_91:\n        /* \"stacking.sol\":2761:3174  if(bonusTime >= (block.timestamp + (3* 30 days)) - block.timestamp){... */\n    tag_84:\n        /* \"stacking.sol\":3215:3227  bool success */\n      0x00\n        /* \"stacking.sol\":3230:3244  s_stakingToken */\n      0x01\n      0x00\n      swap1\n      sload\n      swap1\n      0x0100\n      exp\n      swap1\n      div\n      0xffffffffffffffffffffffffffffffffffffffff\n      and\n        /* \"stacking.sol\":3230:3253  s_stakingToken.transfer */\n      0xffffffffffffffffffffffffffffffffffffffff\n      and\n      0xa9059cbb\n        /* \"stacking.sol\":3254:3264  msg.sender */\n      caller\n        /* \"stacking.sol\":3266:3273  balance */\n      dup6\n        /* \"stacking.sol\":3230:3274  s_stakingToken.transfer(msg.sender, balance) */\n      mload(0x40)\n      dup4\n      0xffffffff\n      and\n      0xe0\n      shl\n      dup2\n      mstore\n      0x04\n      add\n      tag_96\n      swap3\n      swap2\n      swap1\n      tag_97\n      jump\t// in\n    tag_96:\n      0x20\n      mload(0x40)\n      dup1\n      dup4\n      sub\n      dup2\n      0x00\n      dup8\n      gas\n      call\n      iszero\n      dup1\n      iszero\n      tag_99\n      jumpi\n      returndatasize\n      0x00\n      dup1\n      returndatacopy\n      revert(0x00, returndatasize)\n    tag_99:\n      pop\n      pop\n      pop\n      pop\n      mload(0x40)\n      returndatasize\n      not(0x1f)\n      0x1f\n      dup3\n      add\n      and\n      dup3\n      add\n      dup1\n      0x40\n      mstore\n      pop\n      dup2\n      add\n      swap1\n      tag_100\n      swap2\n      swap1\n      tag_101\n      jump\t// in\n    tag_100:\n        /* \"stacking.sol\":3215:3274  bool success = s_stakingToken.transfer(msg.sender, balance) */\n      swap1\n      pop\n        /* \"stacking.sol\":3289:3296  success */\n      dup1\n        /* \"stacking.sol\":3284:3356  if (!success) {... */\n      tag_102\n      jumpi\n        /* \"stacking.sol\":3319:3345  Withdraw__TransferFailed() */\n      mload(0x40)\n      0x8ecca7d100000000000000000000000000000000000000000000000000000000\n      dup2\n      mstore\n      0x04\n      add\n      mload(0x40)\n      dup1\n      swap2\n      sub\n      swap1\n      revert\n        /* \"stacking.sol\":3284:3356  if (!success) {... */\n    tag_102:\n        /* \"stacking.sol\":3399:3400  0 */\n      0x00\n        /* \"stacking.sol\":3374:3384  s_balances */\n      0x02\n        /* \"stacking.sol\":3374:3396  s_balances[msg.sender] */\n      0x00\n        /* \"stacking.sol\":3385:3395  msg.sender */\n      caller\n        /* \"stacking.sol\":3374:3396  s_balances[msg.sender] */\n      0xffffffffffffffffffffffffffffffffffffffff\n      and\n      0xffffffffffffffffffffffffffffffffffffffff\n      and\n      dup2\n      mstore\n      0x20\n      add\n      swap1\n      dup2\n      mstore\n      0x20\n      add\n      0x00\n      keccak256\n        /* \"stacking.sol\":3374:3400  s_balances[msg.sender] = 0 */\n      dup2\n      swap1\n      sstore\n      pop\n        /* \"stacking.sol\":3438:3439  0 */\n      0x00\n        /* \"stacking.sol\":3410:3423  s_unstackTime */\n      0x03\n        /* \"stacking.sol\":3410:3435  s_unstackTime[msg.sender] */\n      0x00\n        /* \"stacking.sol\":3424:3434  msg.sender */\n      caller\n        /* \"stacking.sol\":3410:3435  s_unstackTime[msg.sender] */\n      0xffffffffffffffffffffffffffffffffffffffff\n      and\n      0xffffffffffffffffffffffffffffffffffffffff\n      and\n      dup2\n      mstore\n      0x20\n      add\n      swap1\n      dup2\n      mstore\n      0x20\n      add\n      0x00\n      keccak256\n        /* \"stacking.sol\":3410:3439  s_unstackTime[msg.sender] = 0 */\n      dup2\n      swap1\n      sstore\n      pop\n        /* \"stacking.sol\":3478:3479  0 */\n      0x00\n        /* \"stacking.sol\":3449:3463  s_minStackTime */\n      0x04\n        /* \"stacking.sol\":3449:3475  s_minStackTime[msg.sender] */\n      0x00\n        /* \"stacking.sol\":3464:3474  msg.sender */\n      caller\n        /* \"stacking.sol\":3449:3475  s_minStackTime[msg.sender] */\n      0xffffffffffffffffffffffffffffffffffffffff\n      and\n      0xffffffffffffffffffffffffffffffffffffffff\n      and\n      dup2\n      mstore\n      0x20\n      add\n      swap1\n      dup2\n      mstore\n      0x20\n      add\n      0x00\n      keccak256\n        /* \"stacking.sol\":3449:3479  s_minStackTime[msg.sender] = 0 */\n      dup2\n      swap1\n      sstore\n      pop\n        /* \"stacking.sol\":3491:3507  return \"Success\" */\n      mload(0x40)\n      dup1\n      0x40\n      add\n      0x40\n      mstore\n      dup1\n      0x07\n      dup2\n      mstore\n      0x20\n      add\n      0x5375636365737300000000000000000000000000000000000000000000000000\n      dup2\n      mstore\n      pop\n      swap4\n      pop\n      pop\n      pop\n      pop\n        /* \"stacking.sol\":1994:3514  function withdraw() external payable returns (string memory) {... */\n      swap1\n      jump\t// out\n        /* \"stacking.sol\":766:1988  function stake(uint256 amount, uint16 stakeTime) external moreThanZero(amount) returns (string memory) {... */\n    tag_26:\n        /* \"stacking.sol\":854:867  string memory */\n      0x60\n        /* \"stacking.sol\":837:843  amount */\n      dup3\n        /* \"stacking.sol\":586:587  0 */\n      0x00\n        /* \"stacking.sol\":576:582  amount */\n      dup2\n        /* \"stacking.sol\":576:587  amount == 0 */\n      sub\n        /* \"stacking.sol\":572:649  if (amount == 0) {... */\n      tag_104\n      jumpi\n        /* \"stacking.sol\":610:638  Staking__NeedsMoreThanZero() */\n      mload(0x40)\n      0x9b677fa000000000000000000000000000000000000000000000000000000000\n      dup2\n      mstore\n      0x04\n      add\n      mload(0x40)\n      dup1\n      swap2\n      sub\n      swap1\n      revert\n        /* \"stacking.sol\":572:649  if (amount == 0) {... */\n    tag_104:\n        /* \"stacking.sol\":898:901  300 */\n      0x012c\n        /* \"stacking.sol\":888:894  amount */\n      dup5\n        /* \"stacking.sol\":888:901  amount >= 300 */\n      lt\n      iszero\n        /* \"stacking.sol\":880:941  require(amount >= 300, \"You must provide atleast 300 tokens\") */\n      tag_106\n      jumpi\n      mload(0x40)\n      0x08c379a000000000000000000000000000000000000000000000000000000000\n      dup2\n      mstore\n      0x04\n      add\n      tag_107\n      swap1\n      tag_108\n      jump\t// in\n    tag_107:\n      mload(0x40)\n      dup1\n      swap2\n      sub\n      swap1\n      revert\n    tag_106:\n        /* \"stacking.sol\":972:973  3 */\n      0x03\n        /* \"stacking.sol\":959:968  stakeTime */\n      dup4\n        /* \"stacking.sol\":959:973  stakeTime == 3 */\n      0xffff\n      and\n      eq\n        /* \"stacking.sol\":959:991  stakeTime == 3 || stakeTime == 6 */\n      dup1\n      tag_109\n      jumpi\n      pop\n        /* \"stacking.sol\":990:991  6 */\n      0x06\n        /* \"stacking.sol\":977:986  stakeTime */\n      dup4\n        /* \"stacking.sol\":977:991  stakeTime == 6 */\n      0xffff\n      and\n      eq\n        /* \"stacking.sol\":959:991  stakeTime == 3 || stakeTime == 6 */\n    tag_109:\n        /* \"stacking.sol\":959:1010  stakeTime == 3 || stakeTime == 6 || stakeTime == 12 */\n      dup1\n      tag_110\n      jumpi\n      pop\n        /* \"stacking.sol\":1008:1010  12 */\n      0x0c\n        /* \"stacking.sol\":995:1004  stakeTime */\n      dup4\n        /* \"stacking.sol\":995:1010  stakeTime == 12 */\n      0xffff\n      and\n      eq\n        /* \"stacking.sol\":959:1010  stakeTime == 3 || stakeTime == 6 || stakeTime == 12 */\n    tag_110:\n        /* \"stacking.sol\":951:1068  require(stakeTime == 3 || stakeTime == 6 || stakeTime == 12, \"The provided time is not valid. it must be 3, 6 or 12\") */\n      tag_111\n      jumpi\n      mload(0x40)\n      0x08c379a000000000000000000000000000000000000000000000000000000000\n      dup2\n      mstore\n      0x04\n      add\n      tag_112\n      swap1\n      tag_113\n      jump\t// in\n    tag_112:\n      mload(0x40)\n      dup1\n      swap2\n      sub\n      swap1\n      revert\n    tag_111:\n        /* \"stacking.sol\":1079:1098  uint256 currentTime */\n      0x00\n        /* \"stacking.sol\":1101:1116  block.timestamp */\n      timestamp\n        /* \"stacking.sol\":1079:1116  uint256 currentTime = block.timestamp */\n      swap1\n      pop\n        /* \"stacking.sol\":1126:1143  uint256 extraTime */\n      0x00\n        /* \"stacking.sol\":1178:1179  3 */\n      0x03\n        /* \"stacking.sol\":1165:1174  stakeTime */\n      dup6\n        /* \"stacking.sol\":1165:1179  stakeTime == 3 */\n      0xffff\n      and\n      sub\n        /* \"stacking.sol\":1162:1624  if(stakeTime == 3){... */\n      tag_114\n      jumpi\n        /* \"stacking.sol\":1207:1218  3 * 30 days */\n      0x76a700\n        /* \"stacking.sol\":1194:1218  extraTime =  3 * 30 days */\n      swap1\n      pop\n        /* \"stacking.sol\":1260:1269  extraTime */\n      dup1\n        /* \"stacking.sol\":1246:1257  currentTime */\n      dup3\n        /* \"stacking.sol\":1246:1269  currentTime + extraTime */\n      tag_115\n      swap2\n      swap1\n      tag_69\n      jump\t// in\n    tag_115:\n        /* \"stacking.sol\":1232:1269  currentTime = currentTime + extraTime */\n      swap2\n      pop\n        /* \"stacking.sol\":1162:1624  if(stakeTime == 3){... */\n      jump(tag_116)\n    tag_114:\n        /* \"stacking.sol\":1310:1311  6 */\n      0x06\n        /* \"stacking.sol\":1297:1306  stakeTime */\n      dup6\n        /* \"stacking.sol\":1297:1311  stakeTime == 6 */\n      0xffff\n      and\n      sub\n        /* \"stacking.sol\":1294:1624  if(stakeTime == 6){... */\n      tag_117\n      jumpi\n        /* \"stacking.sol\":1339:1350  6 * 30 days */\n      0xed4e00\n        /* \"stacking.sol\":1326:1350  extraTime =  6 * 30 days */\n      swap1\n      pop\n        /* \"stacking.sol\":1392:1401  extraTime */\n      dup1\n        /* \"stacking.sol\":1378:1389  currentTime */\n      dup3\n        /* \"stacking.sol\":1378:1401  currentTime + extraTime */\n      tag_118\n      swap2\n      swap1\n      tag_69\n      jump\t// in\n    tag_118:\n        /* \"stacking.sol\":1364:1401  currentTime = currentTime + extraTime */\n      swap2\n      pop\n        /* \"stacking.sol\":1294:1624  if(stakeTime == 6){... */\n      jump(tag_119)\n    tag_117:\n        /* \"stacking.sol\":1442:1444  12 */\n      0x0c\n        /* \"stacking.sol\":1429:1438  stakeTime */\n      dup6\n        /* \"stacking.sol\":1429:1444  stakeTime == 12 */\n      0xffff\n      and\n      sub\n        /* \"stacking.sol\":1426:1624  if(stakeTime == 12){... */\n      tag_120\n      jumpi\n        /* \"stacking.sol\":1472:1484  12 * 30 days */\n      0x01da9c00\n        /* \"stacking.sol\":1459:1484  extraTime =  12 * 30 days */\n      swap1\n      pop\n        /* \"stacking.sol\":1526:1535  extraTime */\n      dup1\n        /* \"stacking.sol\":1512:1523  currentTime */\n      dup3\n        /* \"stacking.sol\":1512:1535  currentTime + extraTime */\n      tag_121\n      swap2\n      swap1\n      tag_69\n      jump\t// in\n    tag_121:\n        /* \"stacking.sol\":1498:1535  currentTime = currentTime + extraTime */\n      swap2\n      pop\n        /* \"stacking.sol\":1426:1624  if(stakeTime == 12){... */\n      jump(tag_122)\n    tag_120:\n        /* \"stacking.sol\":1573:1613  return \"The provided time is not valid.\" */\n      mload(0x40)\n      dup1\n      0x40\n      add\n      0x40\n      mstore\n      dup1\n      0x1f\n      dup2\n      mstore\n      0x20\n      add\n      0x5468652070726f76696465642074696d65206973206e6f742076616c69642e00\n      dup2\n      mstore\n      pop\n      swap4\n      pop\n      pop\n      pop\n      jump(tag_105)\n        /* \"stacking.sol\":1426:1624  if(stakeTime == 12){... */\n    tag_122:\n        /* \"stacking.sol\":1294:1624  if(stakeTime == 6){... */\n    tag_119:\n        /* \"stacking.sol\":1162:1624  if(stakeTime == 3){... */\n    tag_116:\n        /* \"stacking.sol\":1660:1666  amount */\n      dup6\n        /* \"stacking.sol\":1634:1644  s_balances */\n      0x02\n        /* \"stacking.sol\":1634:1656  s_balances[msg.sender] */\n      0x00\n        /* \"stacking.sol\":1645:1655  msg.sender */\n      caller\n        /* \"stacking.sol\":1634:1656  s_balances[msg.sender] */\n      0xffffffffffffffffffffffffffffffffffffffff\n      and\n      0xffffffffffffffffffffffffffffffffffffffff\n      and\n      dup2\n      mstore\n      0x20\n      add\n      swap1\n      dup2\n      mstore\n      0x20\n      add\n      0x00\n      keccak256\n      0x00\n        /* \"stacking.sol\":1634:1666  s_balances[msg.sender] += amount */\n      dup3\n      dup3\n      sload\n      tag_123\n      swap2\n      swap1\n      tag_69\n      jump\t// in\n    tag_123:\n      swap3\n      pop\n      pop\n      dup2\n      swap1\n      sstore\n      pop\n        /* \"stacking.sol\":1676:1688  bool success */\n      0x00\n        /* \"stacking.sol\":1691:1705  s_stakingToken */\n      0x01\n      0x00\n      swap1\n      sload\n      swap1\n      0x0100\n      exp\n      swap1\n      div\n      0xffffffffffffffffffffffffffffffffffffffff\n      and\n        /* \"stacking.sol\":1691:1718  s_stakingToken.transferFrom */\n      0xffffffffffffffffffffffffffffffffffffffff\n      and\n      0x23b872dd\n        /* \"stacking.sol\":1719:1729  msg.sender */\n      caller\n        /* \"stacking.sol\":1739:1743  this */\n      address\n        /* \"stacking.sol\":1746:1752  amount */\n      dup11\n        /* \"stacking.sol\":1691:1753  s_stakingToken.transferFrom(msg.sender, address(this), amount) */\n      mload(0x40)\n      dup5\n      0xffffffff\n      and\n      0xe0\n      shl\n      dup2\n      mstore\n      0x04\n      add\n      tag_124\n      swap4\n      swap3\n      swap2\n      swap1\n      tag_125\n      jump\t// in\n    tag_124:\n      0x20\n      mload(0x40)\n      dup1\n      dup4\n      sub\n      dup2\n      0x00\n      dup8\n      gas\n      call\n      iszero\n      dup1\n      iszero\n      tag_127\n      jumpi\n      returndatasize\n      0x00\n      dup1\n      returndatacopy\n      revert(0x00, returndatasize)\n    tag_127:\n      pop\n      pop\n      pop\n      pop\n      mload(0x40)\n      returndatasize\n      not(0x1f)\n      0x1f\n      dup3\n      add\n      and\n      dup3\n      add\n      dup1\n      0x40\n      mstore\n      pop\n      dup2\n      add\n      swap1\n      tag_128\n      swap2\n      swap1\n      tag_101\n      jump\t// in\n    tag_128:\n        /* \"stacking.sol\":1676:1753  bool success = s_stakingToken.transferFrom(msg.sender, address(this), amount) */\n      swap1\n      pop\n        /* \"stacking.sol\":1768:1775  success */\n      dup1\n        /* \"stacking.sol\":1763:1834  if (!success) {... */\n      tag_129\n      jumpi\n        /* \"stacking.sol\":1798:1823  Staking__TransferFailed() */\n      mload(0x40)\n      0xeb4c684700000000000000000000000000000000000000000000000000000000\n      dup2\n      mstore\n      0x04\n      add\n      mload(0x40)\n      dup1\n      swap2\n      sub\n      swap1\n      revert\n        /* \"stacking.sol\":1763:1834  if (!success) {... */\n    tag_129:\n        /* \"stacking.sol\":1881:1892  currentTime */\n      dup3\n        /* \"stacking.sol\":1852:1865  s_unstackTime */\n      0x03\n        /* \"stacking.sol\":1852:1878  s_unstackTime [msg.sender] */\n      0x00\n        /* \"stacking.sol\":1867:1877  msg.sender */\n      caller\n        /* \"stacking.sol\":1852:1878  s_unstackTime [msg.sender] */\n      0xffffffffffffffffffffffffffffffffffffffff\n      and\n      0xffffffffffffffffffffffffffffffffffffffff\n      and\n      dup2\n      mstore\n      0x20\n      add\n      swap1\n      dup2\n      mstore\n      0x20\n      add\n      0x00\n      keccak256\n        /* \"stacking.sol\":1852:1892  s_unstackTime [msg.sender] = currentTime */\n      dup2\n      swap1\n      sstore\n      pop\n        /* \"stacking.sol\":1933:1942  stakeTime */\n      dup6\n        /* \"stacking.sol\":1903:1942  s_minStackTime [msg.sender] = stakeTime */\n      0xffff\n      and\n        /* \"stacking.sol\":1903:1917  s_minStackTime */\n      0x04\n        /* \"stacking.sol\":1903:1930  s_minStackTime [msg.sender] */\n      0x00\n        /* \"stacking.sol\":1919:1929  msg.sender */\n      caller\n        /* \"stacking.sol\":1903:1930  s_minStackTime [msg.sender] */\n      0xffffffffffffffffffffffffffffffffffffffff\n      and\n      0xffffffffffffffffffffffffffffffffffffffff\n      and\n      dup2\n      mstore\n      0x20\n      add\n      swap1\n      dup2\n      mstore\n      0x20\n      add\n      0x00\n      keccak256\n        /* \"stacking.sol\":1903:1942  s_minStackTime [msg.sender] = stakeTime */\n      dup2\n      swap1\n      sstore\n      pop\n        /* \"stacking.sol\":1952:1972  return \"successfull\" */\n      mload(0x40)\n      dup1\n      0x40\n      add\n      0x40\n      mstore\n      dup1\n      0x0b\n      dup2\n      mstore\n      0x20\n      add\n      0x7375636365737366756c6c000000000000000000000000000000000000000000\n      dup2\n      mstore\n      pop\n      swap5\n      pop\n      pop\n      pop\n      pop\n        /* \"stacking.sol\":658:659  _ */\n    tag_105:\n        /* \"stacking.sol\":766:1988  function stake(uint256 amount, uint16 stakeTime) external moreThanZero(amount) returns (string memory) {... */\n      pop\n      swap3\n      swap2\n      pop\n      pop\n      jump\t// out\n        /* \"stacking.sol\":413:461  mapping(address => uint256) public s_unstackTime */\n    tag_31:\n      mstore(0x20, 0x03)\n      dup1\n      0x00\n      mstore\n      keccak256(0x00, 0x40)\n      0x00\n      swap2\n      pop\n      swap1\n      pop\n      sload\n      dup2\n      jump\t// out\n        /* \"stacking.sol\":468:517  mapping(address => uint256) public s_minStackTime */\n    tag_36:\n      mstore(0x20, 0x04)\n      dup1\n      0x00\n      mstore\n      keccak256(0x00, 0x40)\n      0x00\n      swap2\n      pop\n      swap1\n      pop\n      sload\n      dup2\n      jump\t// out\n        /* \"stacking.sol\":3635:3762  function checkBalance (address account) public view returns (uint256) {... */\n    tag_41:\n        /* \"stacking.sol\":3696:3703  uint256 */\n      0x00\n        /* \"stacking.sol\":3722:3736  s_stakingToken */\n      0x01\n      0x00\n      swap1\n      sload\n      swap1\n      0x0100\n      exp\n      swap1\n      div\n      0xffffffffffffffffffffffffffffffffffffffff\n      and\n        /* \"stacking.sol\":3722:3746  s_stakingToken.balanceOf */\n      0xffffffffffffffffffffffffffffffffffffffff\n      and\n      0x70a08231\n        /* \"stacking.sol\":3747:3754  account */\n      dup4\n        /* \"stacking.sol\":3722:3755  s_stakingToken.balanceOf(account) */\n      mload(0x40)\n      dup3\n      0xffffffff\n      and\n      0xe0\n      shl\n      dup2\n      mstore\n      0x04\n      add\n      tag_131\n      swap2\n      swap1\n      tag_132\n      jump\t// in\n    tag_131:\n      0x20\n      mload(0x40)\n      dup1\n      dup4\n      sub\n      dup2\n      dup7\n      gas\n      staticcall\n      iszero\n      dup1\n      iszero\n      tag_134\n      jumpi\n      returndatasize\n      0x00\n      dup1\n      returndatacopy\n      revert(0x00, returndatasize)\n    tag_134:\n      pop\n      pop\n      pop\n      pop\n      mload(0x40)\n      returndatasize\n      not(0x1f)\n      0x1f\n      dup3\n      add\n      and\n      dup3\n      add\n      dup1\n      0x40\n      mstore\n      pop\n      dup2\n      add\n      swap1\n      tag_135\n      swap2\n      swap1\n      tag_136\n      jump\t// in\n    tag_135:\n        /* \"stacking.sol\":3715:3755  return s_stakingToken.balanceOf(account) */\n      swap1\n      pop\n        /* \"stacking.sol\":3635:3762  function checkBalance (address account) public view returns (uint256) {... */\n      swap2\n      swap1\n      pop\n      jump\t// out\n        /* \"stacking.sol\":361:406  mapping(address => uint256) public s_balances */\n    tag_46:\n      mstore(0x20, 0x02)\n      dup1\n      0x00\n      mstore\n      keccak256(0x00, 0x40)\n      0x00\n      swap2\n      pop\n      swap1\n      pop\n      sload\n      dup2\n      jump\t// out\n        /* \"stacking.sol\":325:353  IERC20 public s_stakingToken */\n    tag_50:\n      0x01\n      0x00\n      swap1\n      sload\n      swap1\n      0x0100\n      exp\n      swap1\n      div\n      0xffffffffffffffffffffffffffffffffffffffff\n      and\n      dup2\n      jump\t// out\n        /* \"#utility.yul\":88:205   */\n    tag_138:\n        /* \"#utility.yul\":197:198   */\n      0x00\n        /* \"#utility.yul\":194:195   */\n      dup1\n        /* \"#utility.yul\":187:199   */\n      revert\n        /* \"#utility.yul\":334:460   */\n    tag_140:\n        /* \"#utility.yul\":371:378   */\n      0x00\n        /* \"#utility.yul\":411:453   */\n      0xffffffffffffffffffffffffffffffffffffffff\n        /* \"#utility.yul\":404:409   */\n      dup3\n        /* \"#utility.yul\":400:454   */\n      and\n        /* \"#utility.yul\":389:454   */\n      swap1\n      pop\n        /* \"#utility.yul\":334:460   */\n      swap2\n      swap1\n      pop\n      jump\t// out\n        /* \"#utility.yul\":466:562   */\n    tag_141:\n        /* \"#utility.yul\":503:510   */\n      0x00\n        /* \"#utility.yul\":532:556   */\n      tag_182\n        /* \"#utility.yul\":550:555   */\n      dup3\n        /* \"#utility.yul\":532:556   */\n      tag_140\n      jump\t// in\n    tag_182:\n        /* \"#utility.yul\":521:556   */\n      swap1\n      pop\n        /* \"#utility.yul\":466:562   */\n      swap2\n      swap1\n      pop\n      jump\t// out\n        /* \"#utility.yul\":568:690   */\n    tag_142:\n        /* \"#utility.yul\":641:665   */\n      tag_184\n        /* \"#utility.yul\":659:664   */\n      dup2\n        /* \"#utility.yul\":641:665   */\n      tag_141\n      jump\t// in\n    tag_184:\n        /* \"#utility.yul\":634:639   */\n      dup2\n        /* \"#utility.yul\":631:666   */\n      eq\n        /* \"#utility.yul\":621:684   */\n      tag_185\n      jumpi\n        /* \"#utility.yul\":680:681   */\n      0x00\n        /* \"#utility.yul\":677:678   */\n      dup1\n        /* \"#utility.yul\":670:682   */\n      revert\n        /* \"#utility.yul\":621:684   */\n    tag_185:\n        /* \"#utility.yul\":568:690   */\n      pop\n      jump\t// out\n        /* \"#utility.yul\":696:835   */\n    tag_143:\n        /* \"#utility.yul\":742:747   */\n      0x00\n        /* \"#utility.yul\":780:786   */\n      dup2\n        /* \"#utility.yul\":767:787   */\n      calldataload\n        /* \"#utility.yul\":758:787   */\n      swap1\n      pop\n        /* \"#utility.yul\":796:829   */\n      tag_187\n        /* \"#utility.yul\":823:828   */\n      dup2\n        /* \"#utility.yul\":796:829   */\n      tag_142\n      jump\t// in\n    tag_187:\n        /* \"#utility.yul\":696:835   */\n      swap3\n      swap2\n      pop\n      pop\n      jump\t// out\n        /* \"#utility.yul\":841:1170   */\n    tag_14:\n        /* \"#utility.yul\":900:906   */\n      0x00\n        /* \"#utility.yul\":949:951   */\n      0x20\n        /* \"#utility.yul\":937:946   */\n      dup3\n        /* \"#utility.yul\":928:935   */\n      dup5\n        /* \"#utility.yul\":924:947   */\n      sub\n        /* \"#utility.yul\":920:952   */\n      slt\n        /* \"#utility.yul\":917:1036   */\n      iszero\n      tag_189\n      jumpi\n        /* \"#utility.yul\":955:1034   */\n      tag_190\n      tag_138\n      jump\t// in\n    tag_190:\n        /* \"#utility.yul\":917:1036   */\n    tag_189:\n        /* \"#utility.yul\":1075:1076   */\n      0x00\n        /* \"#utility.yul\":1100:1153   */\n      tag_191\n        /* \"#utility.yul\":1145:1152   */\n      dup5\n        /* \"#utility.yul\":1136:1142   */\n      dup3\n        /* \"#utility.yul\":1125:1134   */\n      dup6\n        /* \"#utility.yul\":1121:1143   */\n      add\n        /* \"#utility.yul\":1100:1153   */\n      tag_143\n      jump\t// in\n    tag_191:\n        /* \"#utility.yul\":1090:1153   */\n      swap2\n      pop\n        /* \"#utility.yul\":1046:1163   */\n      pop\n        /* \"#utility.yul\":841:1170   */\n      swap3\n      swap2\n      pop\n      pop\n      jump\t// out\n        /* \"#utility.yul\":1176:1253   */\n    tag_144:\n        /* \"#utility.yul\":1213:1220   */\n      0x00\n        /* \"#utility.yul\":1242:1247   */\n      dup2\n        /* \"#utility.yul\":1231:1247   */\n      swap1\n      pop\n        /* \"#utility.yul\":1176:1253   */\n      swap2\n      swap1\n      pop\n      jump\t// out\n        /* \"#utility.yul\":1259:1377   */\n    tag_145:\n        /* \"#utility.yul\":1346:1370   */\n      tag_194\n        /* \"#utility.yul\":1364:1369   */\n      dup2\n        /* \"#utility.yul\":1346:1370   */\n      tag_144\n      jump\t// in\n    tag_194:\n        /* \"#utility.yul\":1341:1344   */\n      dup3\n        /* \"#utility.yul\":1334:1371   */\n      mstore\n        /* \"#utility.yul\":1259:1377   */\n      pop\n      pop\n      jump\t// out\n        /* \"#utility.yul\":1383:1605   */\n    tag_17:\n        /* \"#utility.yul\":1476:1480   */\n      0x00\n        /* \"#utility.yul\":1514:1516   */\n      0x20\n        /* \"#utility.yul\":1503:1512   */\n      dup3\n        /* \"#utility.yul\":1499:1517   */\n      add\n        /* \"#utility.yul\":1491:1517   */\n      swap1\n      pop\n        /* \"#utility.yul\":1527:1598   */\n      tag_196\n        /* \"#utility.yul\":1595:1596   */\n      0x00\n        /* \"#utility.yul\":1584:1593   */\n      dup4\n        /* \"#utility.yul\":1580:1597   */\n      add\n        /* \"#utility.yul\":1571:1577   */\n      dup5\n        /* \"#utility.yul\":1527:1598   */\n      tag_145\n      jump\t// in\n    tag_196:\n        /* \"#utility.yul\":1383:1605   */\n      swap3\n      swap2\n      pop\n      pop\n      jump\t// out\n        /* \"#utility.yul\":1611:1710   */\n    tag_146:\n        /* \"#utility.yul\":1663:1669   */\n      0x00\n        /* \"#utility.yul\":1697:1702   */\n      dup2\n        /* \"#utility.yul\":1691:1703   */\n      mload\n        /* \"#utility.yul\":1681:1703   */\n      swap1\n      pop\n        /* \"#utility.yul\":1611:1710   */\n      swap2\n      swap1\n      pop\n      jump\t// out\n        /* \"#utility.yul\":1716:1885   */\n    tag_147:\n        /* \"#utility.yul\":1800:1811   */\n      0x00\n        /* \"#utility.yul\":1834:1840   */\n      dup3\n        /* \"#utility.yul\":1829:1832   */\n      dup3\n        /* \"#utility.yul\":1822:1841   */\n      mstore\n        /* \"#utility.yul\":1874:1878   */\n      0x20\n        /* \"#utility.yul\":1869:1872   */\n      dup3\n        /* \"#utility.yul\":1865:1879   */\n      add\n        /* \"#utility.yul\":1850:1879   */\n      swap1\n      pop\n        /* \"#utility.yul\":1716:1885   */\n      swap3\n      swap2\n      pop\n      pop\n      jump\t// out\n        /* \"#utility.yul\":1891:2030   */\n    tag_148:\n        /* \"#utility.yul\":1980:1986   */\n      dup3\n        /* \"#utility.yul\":1975:1978   */\n      dup2\n        /* \"#utility.yul\":1970:1973   */\n      dup4\n        /* \"#utility.yul\":1964:1987   */\n      mcopy\n        /* \"#utility.yul\":2021:2022   */\n      0x00\n        /* \"#utility.yul\":2012:2018   */\n      dup4\n        /* \"#utility.yul\":2007:2010   */\n      dup4\n        /* \"#utility.yul\":2003:2019   */\n      add\n        /* \"#utility.yul\":1996:2023   */\n      mstore\n        /* \"#utility.yul\":1891:2030   */\n      pop\n      pop\n      pop\n      jump\t// out\n        /* \"#utility.yul\":2036:2138   */\n    tag_149:\n        /* \"#utility.yul\":2077:2083   */\n      0x00\n        /* \"#utility.yul\":2128:2130   */\n      0x1f\n        /* \"#utility.yul\":2124:2131   */\n      not\n        /* \"#utility.yul\":2119:2121   */\n      0x1f\n        /* \"#utility.yul\":2112:2117   */\n      dup4\n        /* \"#utility.yul\":2108:2122   */\n      add\n        /* \"#utility.yul\":2104:2132   */\n      and\n        /* \"#utility.yul\":2094:2132   */\n      swap1\n      pop\n        /* \"#utility.yul\":2036:2138   */\n      swap2\n      swap1\n      pop\n      jump\t// out\n        /* \"#utility.yul\":2144:2521   */\n    tag_150:\n        /* \"#utility.yul\":2232:2235   */\n      0x00\n        /* \"#utility.yul\":2260:2299   */\n      tag_202\n        /* \"#utility.yul\":2293:2298   */\n      dup3\n        /* \"#utility.yul\":2260:2299   */\n      tag_146\n      jump\t// in\n    tag_202:\n        /* \"#utility.yul\":2315:2386   */\n      tag_203\n        /* \"#utility.yul\":2379:2385   */\n      dup2\n        /* \"#utility.yul\":2374:2377   */\n      dup6\n        /* \"#utility.yul\":2315:2386   */\n      tag_147\n      jump\t// in\n    tag_203:\n        /* \"#utility.yul\":2308:2386   */\n      swap4\n      pop\n        /* \"#utility.yul\":2395:2460   */\n      tag_204\n        /* \"#utility.yul\":2453:2459   */\n      dup2\n        /* \"#utility.yul\":2448:2451   */\n      dup6\n        /* \"#utility.yul\":2441:2445   */\n      0x20\n        /* \"#utility.yul\":2434:2439   */\n      dup7\n        /* \"#utility.yul\":2430:2446   */\n      add\n        /* \"#utility.yul\":2395:2460   */\n      tag_148\n      jump\t// in\n    tag_204:\n        /* \"#utility.yul\":2485:2514   */\n      tag_205\n        /* \"#utility.yul\":2507:2513   */\n      dup2\n        /* \"#utility.yul\":2485:2514   */\n      tag_149\n      jump\t// in\n    tag_205:\n        /* \"#utility.yul\":2480:2483   */\n      dup5\n        /* \"#utility.yul\":2476:2515   */\n      add\n        /* \"#utility.yul\":2469:2515   */\n      swap2\n      pop\n        /* \"#utility.yul\":2236:2521   */\n      pop\n        /* \"#utility.yul\":2144:2521   */\n      swap3\n      swap2\n      pop\n      pop\n      jump\t// out\n        /* \"#utility.yul\":2527:2840   */\n    tag_21:\n        /* \"#utility.yul\":2640:2644   */\n      0x00\n        /* \"#utility.yul\":2678:2680   */\n      0x20\n        /* \"#utility.yul\":2667:2676   */\n      dup3\n        /* \"#utility.yul\":2663:2681   */\n      add\n        /* \"#utility.yul\":2655:2681   */\n      swap1\n      pop\n        /* \"#utility.yul\":2727:2736   */\n      dup2\n        /* \"#utility.yul\":2721:2725   */\n      dup2\n        /* \"#utility.yul\":2717:2737   */\n      sub\n        /* \"#utility.yul\":2713:2714   */\n      0x00\n        /* \"#utility.yul\":2702:2711   */\n      dup4\n        /* \"#utility.yul\":2698:2715   */\n      add\n        /* \"#utility.yul\":2691:2738   */\n      mstore\n        /* \"#utility.yul\":2755:2833   */\n      tag_207\n        /* \"#utility.yul\":2828:2832   */\n      dup2\n        /* \"#utility.yul\":2819:2825   */\n      dup5\n        /* \"#utility.yul\":2755:2833   */\n      tag_150\n      jump\t// in\n    tag_207:\n        /* \"#utility.yul\":2747:2833   */\n      swap1\n      pop\n        /* \"#utility.yul\":2527:2840   */\n      swap3\n      swap2\n      pop\n      pop\n      jump\t// out\n        /* \"#utility.yul\":2846:2968   */\n    tag_151:\n        /* \"#utility.yul\":2919:2943   */\n      tag_209\n        /* \"#utility.yul\":2937:2942   */\n      dup2\n        /* \"#utility.yul\":2919:2943   */\n      tag_144\n      jump\t// in\n    tag_209:\n        /* \"#utility.yul\":2912:2917   */\n      dup2\n        /* \"#utility.yul\":2909:2944   */\n      eq\n        /* \"#utility.yul\":2899:2962   */\n      tag_210\n      jumpi\n        /* \"#utility.yul\":2958:2959   */\n      0x00\n        /* \"#utility.yul\":2955:2956   */\n      dup1\n        /* \"#utility.yul\":2948:2960   */\n      revert\n        /* \"#utility.yul\":2899:2962   */\n    tag_210:\n        /* \"#utility.yul\":2846:2968   */\n      pop\n      jump\t// out\n        /* \"#utility.yul\":2974:3113   */\n    tag_152:\n        /* \"#utility.yul\":3020:3025   */\n      0x00\n        /* \"#utility.yul\":3058:3064   */\n      dup2\n        /* \"#utility.yul\":3045:3065   */\n      calldataload\n        /* \"#utility.yul\":3036:3065   */\n      swap1\n      pop\n        /* \"#utility.yul\":3074:3107   */\n      tag_212\n        /* \"#utility.yul\":3101:3106   */\n      dup2\n        /* \"#utility.yul\":3074:3107   */\n      tag_151\n      jump\t// in\n    tag_212:\n        /* \"#utility.yul\":2974:3113   */\n      swap3\n      swap2\n      pop\n      pop\n      jump\t// out\n        /* \"#utility.yul\":3119:3208   */\n    tag_153:\n        /* \"#utility.yul\":3155:3162   */\n      0x00\n        /* \"#utility.yul\":3195:3201   */\n      0xffff\n        /* \"#utility.yul\":3188:3193   */\n      dup3\n        /* \"#utility.yul\":3184:3202   */\n      and\n        /* \"#utility.yul\":3173:3202   */\n      swap1\n      pop\n        /* \"#utility.yul\":3119:3208   */\n      swap2\n      swap1\n      pop\n      jump\t// out\n        /* \"#utility.yul\":3214:3334   */\n    tag_154:\n        /* \"#utility.yul\":3286:3309   */\n      tag_215\n        /* \"#utility.yul\":3303:3308   */\n      dup2\n        /* \"#utility.yul\":3286:3309   */\n      tag_153\n      jump\t// in\n    tag_215:\n        /* \"#utility.yul\":3279:3284   */\n      dup2\n        /* \"#utility.yul\":3276:3310   */\n      eq\n        /* \"#utility.yul\":3266:3328   */\n      tag_216\n      jumpi\n        /* \"#utility.yul\":3324:3325   */\n      0x00\n        /* \"#utility.yul\":3321:3322   */\n      dup1\n        /* \"#utility.yul\":3314:3326   */\n      revert\n        /* \"#utility.yul\":3266:3328   */\n    tag_216:\n        /* \"#utility.yul\":3214:3334   */\n      pop\n      jump\t// out\n        /* \"#utility.yul\":3340:3477   */\n    tag_155:\n        /* \"#utility.yul\":3385:3390   */\n      0x00\n        /* \"#utility.yul\":3423:3429   */\n      dup2\n        /* \"#utility.yul\":3410:3430   */\n      calldataload\n        /* \"#utility.yul\":3401:3430   */\n      swap1\n      pop\n        /* \"#utility.yul\":3439:3471   */\n      tag_218\n        /* \"#utility.yul\":3465:3470   */\n      dup2\n        /* \"#utility.yul\":3439:3471   */\n      tag_154\n      jump\t// in\n    tag_218:\n        /* \"#utility.yul\":3340:3477   */\n      swap3\n      swap2\n      pop\n      pop\n      jump\t// out\n        /* \"#utility.yul\":3483:3955   */\n    tag_25:\n        /* \"#utility.yul\":3550:3556   */\n      0x00\n        /* \"#utility.yul\":3558:3564   */\n      dup1\n        /* \"#utility.yul\":3607:3609   */\n      0x40\n        /* \"#utility.yul\":3595:3604   */\n      dup4\n        /* \"#utility.yul\":3586:3593   */\n      dup6\n        /* \"#utility.yul\":3582:3605   */\n      sub\n        /* \"#utility.yul\":3578:3610   */\n      slt\n        /* \"#utility.yul\":3575:3694   */\n      iszero\n      tag_220\n      jumpi\n        /* \"#utility.yul\":3613:3692   */\n      tag_221\n      tag_138\n      jump\t// in\n    tag_221:\n        /* \"#utility.yul\":3575:3694   */\n    tag_220:\n        /* \"#utility.yul\":3733:3734   */\n      0x00\n        /* \"#utility.yul\":3758:3811   */\n      tag_222\n        /* \"#utility.yul\":3803:3810   */\n      dup6\n        /* \"#utility.yul\":3794:3800   */\n      dup3\n        /* \"#utility.yul\":3783:3792   */\n      dup7\n        /* \"#utility.yul\":3779:3801   */\n      add\n        /* \"#utility.yul\":3758:3811   */\n      tag_152\n      jump\t// in\n    tag_222:\n        /* \"#utility.yul\":3748:3811   */\n      swap3\n      pop\n        /* \"#utility.yul\":3704:3821   */\n      pop\n        /* \"#utility.yul\":3860:3862   */\n      0x20\n        /* \"#utility.yul\":3886:3938   */\n      tag_223\n        /* \"#utility.yul\":3930:3937   */\n      dup6\n        /* \"#utility.yul\":3921:3927   */\n      dup3\n        /* \"#utility.yul\":3910:3919   */\n      dup7\n        /* \"#utility.yul\":3906:3928   */\n      add\n        /* \"#utility.yul\":3886:3938   */\n      tag_155\n      jump\t// in\n    tag_223:\n        /* \"#utility.yul\":3876:3938   */\n      swap2\n      pop\n        /* \"#utility.yul\":3831:3948   */\n      pop\n        /* \"#utility.yul\":3483:3955   */\n      swap3\n      pop\n      swap3\n      swap1\n      pop\n      jump\t// out\n        /* \"#utility.yul\":3961:4021   */\n    tag_156:\n        /* \"#utility.yul\":3989:3992   */\n      0x00\n        /* \"#utility.yul\":4010:4015   */\n      dup2\n        /* \"#utility.yul\":4003:4015   */\n      swap1\n      pop\n        /* \"#utility.yul\":3961:4021   */\n      swap2\n      swap1\n      pop\n      jump\t// out\n        /* \"#utility.yul\":4027:4169   */\n    tag_157:\n        /* \"#utility.yul\":4077:4086   */\n      0x00\n        /* \"#utility.yul\":4110:4163   */\n      tag_226\n        /* \"#utility.yul\":4128:4162   */\n      tag_227\n        /* \"#utility.yul\":4137:4161   */\n      tag_228\n        /* \"#utility.yul\":4155:4160   */\n      dup5\n        /* \"#utility.yul\":4137:4161   */\n      tag_140\n      jump\t// in\n    tag_228:\n        /* \"#utility.yul\":4128:4162   */\n      tag_156\n      jump\t// in\n    tag_227:\n        /* \"#utility.yul\":4110:4163   */\n      tag_140\n      jump\t// in\n    tag_226:\n        /* \"#utility.yul\":4097:4163   */\n      swap1\n      pop\n        /* \"#utility.yul\":4027:4169   */\n      swap2\n      swap1\n      pop\n      jump\t// out\n        /* \"#utility.yul\":4175:4301   */\n    tag_158:\n        /* \"#utility.yul\":4225:4234   */\n      0x00\n        /* \"#utility.yul\":4258:4295   */\n      tag_230\n        /* \"#utility.yul\":4289:4294   */\n      dup3\n        /* \"#utility.yul\":4258:4295   */\n      tag_157\n      jump\t// in\n    tag_230:\n        /* \"#utility.yul\":4245:4295   */\n      swap1\n      pop\n        /* \"#utility.yul\":4175:4301   */\n      swap2\n      swap1\n      pop\n      jump\t// out\n        /* \"#utility.yul\":4307:4447   */\n    tag_159:\n        /* \"#utility.yul\":4371:4380   */\n      0x00\n        /* \"#utility.yul\":4404:4441   */\n      tag_232\n        /* \"#utility.yul\":4435:4440   */\n      dup3\n        /* \"#utility.yul\":4404:4441   */\n      tag_158\n      jump\t// in\n    tag_232:\n        /* \"#utility.yul\":4391:4441   */\n      swap1\n      pop\n        /* \"#utility.yul\":4307:4447   */\n      swap2\n      swap1\n      pop\n      jump\t// out\n        /* \"#utility.yul\":4453:4612   */\n    tag_160:\n        /* \"#utility.yul\":4554:4605   */\n      tag_234\n        /* \"#utility.yul\":4599:4604   */\n      dup2\n        /* \"#utility.yul\":4554:4605   */\n      tag_159\n      jump\t// in\n    tag_234:\n        /* \"#utility.yul\":4549:4552   */\n      dup3\n        /* \"#utility.yul\":4542:4606   */\n      mstore\n        /* \"#utility.yul\":4453:4612   */\n      pop\n      pop\n      jump\t// out\n        /* \"#utility.yul\":4618:4868   */\n    tag_52:\n        /* \"#utility.yul\":4725:4729   */\n      0x00\n        /* \"#utility.yul\":4763:4765   */\n      0x20\n        /* \"#utility.yul\":4752:4761   */\n      dup3\n        /* \"#utility.yul\":4748:4766   */\n      add\n        /* \"#utility.yul\":4740:4766   */\n      swap1\n      pop\n        /* \"#utility.yul\":4776:4861   */\n      tag_236\n        /* \"#utility.yul\":4858:4859   */\n      0x00\n        /* \"#utility.yul\":4847:4856   */\n      dup4\n        /* \"#utility.yul\":4843:4860   */\n      add\n        /* \"#utility.yul\":4834:4840   */\n      dup5\n        /* \"#utility.yul\":4776:4861   */\n      tag_160\n      jump\t// in\n    tag_236:\n        /* \"#utility.yul\":4618:4868   */\n      swap3\n      swap2\n      pop\n      pop\n      jump\t// out\n        /* \"#utility.yul\":4874:5051   */\n    tag_161:\n        /* \"#utility.yul\":5014:5043   */\n      0x596f752068617665206e6f7420656e6f7567682062616c616e63650000000000\n        /* \"#utility.yul\":5010:5011   */\n      0x00\n        /* \"#utility.yul\":5002:5008   */\n      dup3\n        /* \"#utility.yul\":4998:5012   */\n      add\n        /* \"#utility.yul\":4991:5044   */\n      mstore\n        /* \"#utility.yul\":4874:5051   */\n      pop\n      jump\t// out\n        /* \"#utility.yul\":5057:5423   */\n    tag_162:\n        /* \"#utility.yul\":5199:5202   */\n      0x00\n        /* \"#utility.yul\":5220:5287   */\n      tag_239\n        /* \"#utility.yul\":5284:5286   */\n      0x1b\n        /* \"#utility.yul\":5279:5282   */\n      dup4\n        /* \"#utility.yul\":5220:5287   */\n      tag_147\n      jump\t// in\n    tag_239:\n        /* \"#utility.yul\":5213:5287   */\n      swap2\n      pop\n        /* \"#utility.yul\":5296:5389   */\n      tag_240\n        /* \"#utility.yul\":5385:5388   */\n      dup3\n        /* \"#utility.yul\":5296:5389   */\n      tag_161\n      jump\t// in\n    tag_240:\n        /* \"#utility.yul\":5414:5416   */\n      0x20\n        /* \"#utility.yul\":5409:5412   */\n      dup3\n        /* \"#utility.yul\":5405:5417   */\n      add\n        /* \"#utility.yul\":5398:5417   */\n      swap1\n      pop\n        /* \"#utility.yul\":5057:5423   */\n      swap2\n      swap1\n      pop\n      jump\t// out\n        /* \"#utility.yul\":5429:5848   */\n    tag_57:\n        /* \"#utility.yul\":5595:5599   */\n      0x00\n        /* \"#utility.yul\":5633:5635   */\n      0x20\n        /* \"#utility.yul\":5622:5631   */\n      dup3\n        /* \"#utility.yul\":5618:5636   */\n      add\n        /* \"#utility.yul\":5610:5636   */\n      swap1\n      pop\n        /* \"#utility.yul\":5682:5691   */\n      dup2\n        /* \"#utility.yul\":5676:5680   */\n      dup2\n        /* \"#utility.yul\":5672:5692   */\n      sub\n        /* \"#utility.yul\":5668:5669   */\n      0x00\n        /* \"#utility.yul\":5657:5666   */\n      dup4\n        /* \"#utility.yul\":5653:5670   */\n      add\n        /* \"#utility.yul\":5646:5693   */\n      mstore\n        /* \"#utility.yul\":5710:5841   */\n      tag_242\n        /* \"#utility.yul\":5836:5840   */\n      dup2\n        /* \"#utility.yul\":5710:5841   */\n      tag_162\n      jump\t// in\n    tag_242:\n        /* \"#utility.yul\":5702:5841   */\n      swap1\n      pop\n        /* \"#utility.yul\":5429:5848   */\n      swap2\n      swap1\n      pop\n      jump\t// out\n        /* \"#utility.yul\":5854:6075   */\n    tag_163:\n        /* \"#utility.yul\":5994:6028   */\n      0x596f7572207374616b696e672074696d65206973206e6f7420636f6d706c6574\n        /* \"#utility.yul\":5990:5991   */\n      0x00\n        /* \"#utility.yul\":5982:5988   */\n      dup3\n        /* \"#utility.yul\":5978:5992   */\n      add\n        /* \"#utility.yul\":5971:6029   */\n      mstore\n        /* \"#utility.yul\":6063:6067   */\n      0x6564000000000000000000000000000000000000000000000000000000000000\n        /* \"#utility.yul\":6058:6060   */\n      0x20\n        /* \"#utility.yul\":6050:6056   */\n      dup3\n        /* \"#utility.yul\":6046:6061   */\n      add\n        /* \"#utility.yul\":6039:6068   */\n      mstore\n        /* \"#utility.yul\":5854:6075   */\n      pop\n      jump\t// out\n        /* \"#utility.yul\":6081:6447   */\n    tag_164:\n        /* \"#utility.yul\":6223:6226   */\n      0x00\n        /* \"#utility.yul\":6244:6311   */\n      tag_245\n        /* \"#utility.yul\":6308:6310   */\n      0x22\n        /* \"#utility.yul\":6303:6306   */\n      dup4\n        /* \"#utility.yul\":6244:6311   */\n      tag_147\n      jump\t// in\n    tag_245:\n        /* \"#utility.yul\":6237:6311   */\n      swap2\n      pop\n        /* \"#utility.yul\":6320:6413   */\n      tag_246\n        /* \"#utility.yul\":6409:6412   */\n      dup3\n        /* \"#utility.yul\":6320:6413   */\n      tag_163\n      jump\t// in\n    tag_246:\n        /* \"#utility.yul\":6438:6440   */\n      0x40\n        /* \"#utility.yul\":6433:6436   */\n      dup3\n        /* \"#utility.yul\":6429:6441   */\n      add\n        /* \"#utility.yul\":6422:6441   */\n      swap1\n      pop\n        /* \"#utility.yul\":6081:6447   */\n      swap2\n      swap1\n      pop\n      jump\t// out\n        /* \"#utility.yul\":6453:6872   */\n    tag_60:\n        /* \"#utility.yul\":6619:6623   */\n      0x00\n        /* \"#utility.yul\":6657:6659   */\n      0x20\n        /* \"#utility.yul\":6646:6655   */\n      dup3\n        /* \"#utility.yul\":6642:6660   */\n      add\n        /* \"#utility.yul\":6634:6660   */\n      swap1\n      pop\n        /* \"#utility.yul\":6706:6715   */\n      dup2\n        /* \"#utility.yul\":6700:6704   */\n      dup2\n        /* \"#utility.yul\":6696:6716   */\n      sub\n        /* \"#utility.yul\":6692:6693   */\n      0x00\n        /* \"#utility.yul\":6681:6690   */\n      dup4\n        /* \"#utility.yul\":6677:6694   */\n      add\n        /* \"#utility.yul\":6670:6717   */\n      mstore\n        /* \"#utility.yul\":6734:6865   */\n      tag_248\n        /* \"#utility.yul\":6860:6864   */\n      dup2\n        /* \"#utility.yul\":6734:6865   */\n      tag_164\n      jump\t// in\n    tag_248:\n        /* \"#utility.yul\":6726:6865   */\n      swap1\n      pop\n        /* \"#utility.yul\":6453:6872   */\n      swap2\n      swap1\n      pop\n      jump\t// out\n        /* \"#utility.yul\":6878:7058   */\n    tag_165:\n        /* \"#utility.yul\":6926:7003   */\n      0x4e487b7100000000000000000000000000000000000000000000000000000000\n        /* \"#utility.yul\":6923:6924   */\n      0x00\n        /* \"#utility.yul\":6916:7004   */\n      mstore\n        /* \"#utility.yul\":7023:7027   */\n      0x11\n        /* \"#utility.yul\":7020:7021   */\n      0x04\n        /* \"#utility.yul\":7013:7028   */\n      mstore\n        /* \"#utility.yul\":7047:7051   */\n      0x24\n        /* \"#utility.yul\":7044:7045   */\n      0x00\n        /* \"#utility.yul\":7037:7052   */\n      revert\n        /* \"#utility.yul\":7064:7258   */\n    tag_62:\n        /* \"#utility.yul\":7104:7108   */\n      0x00\n        /* \"#utility.yul\":7124:7144   */\n      tag_251\n        /* \"#utility.yul\":7142:7143   */\n      dup3\n        /* \"#utility.yul\":7124:7144   */\n      tag_144\n      jump\t// in\n    tag_251:\n        /* \"#utility.yul\":7119:7144   */\n      swap2\n      pop\n        /* \"#utility.yul\":7158:7178   */\n      tag_252\n        /* \"#utility.yul\":7176:7177   */\n      dup4\n        /* \"#utility.yul\":7158:7178   */\n      tag_144\n      jump\t// in\n    tag_252:\n        /* \"#utility.yul\":7153:7178   */\n      swap3\n      pop\n        /* \"#utility.yul\":7202:7203   */\n      dup3\n        /* \"#utility.yul\":7199:7200   */\n      dup3\n        /* \"#utility.yul\":7195:7204   */\n      sub\n        /* \"#utility.yul\":7187:7204   */\n      swap1\n      pop\n        /* \"#utility.yul\":7226:7227   */\n      dup2\n        /* \"#utility.yul\":7220:7224   */\n      dup2\n        /* \"#utility.yul\":7217:7228   */\n      gt\n        /* \"#utility.yul\":7214:7251   */\n      iszero\n      tag_253\n      jumpi\n        /* \"#utility.yul\":7231:7249   */\n      tag_254\n      tag_165\n      jump\t// in\n    tag_254:\n        /* \"#utility.yul\":7214:7251   */\n    tag_253:\n        /* \"#utility.yul\":7064:7258   */\n      swap3\n      swap2\n      pop\n      pop\n      jump\t// out\n        /* \"#utility.yul\":7264:7674   */\n    tag_65:\n        /* \"#utility.yul\":7304:7311   */\n      0x00\n        /* \"#utility.yul\":7327:7347   */\n      tag_256\n        /* \"#utility.yul\":7345:7346   */\n      dup3\n        /* \"#utility.yul\":7327:7347   */\n      tag_144\n      jump\t// in\n    tag_256:\n        /* \"#utility.yul\":7322:7347   */\n      swap2\n      pop\n        /* \"#utility.yul\":7361:7381   */\n      tag_257\n        /* \"#utility.yul\":7379:7380   */\n      dup4\n        /* \"#utility.yul\":7361:7381   */\n      tag_144\n      jump\t// in\n    tag_257:\n        /* \"#utility.yul\":7356:7381   */\n      swap3\n      pop\n        /* \"#utility.yul\":7416:7417   */\n      dup3\n        /* \"#utility.yul\":7413:7414   */\n      dup3\n        /* \"#utility.yul\":7409:7418   */\n      mul\n        /* \"#utility.yul\":7438:7468   */\n      tag_258\n        /* \"#utility.yul\":7456:7467   */\n      dup2\n        /* \"#utility.yul\":7438:7468   */\n      tag_144\n      jump\t// in\n    tag_258:\n        /* \"#utility.yul\":7427:7468   */\n      swap2\n      pop\n        /* \"#utility.yul\":7617:7618   */\n      dup3\n        /* \"#utility.yul\":7608:7615   */\n      dup3\n        /* \"#utility.yul\":7604:7619   */\n      div\n        /* \"#utility.yul\":7601:7602   */\n      dup5\n        /* \"#utility.yul\":7598:7620   */\n      eq\n        /* \"#utility.yul\":7578:7579   */\n      dup4\n        /* \"#utility.yul\":7571:7580   */\n      iszero\n        /* \"#utility.yul\":7551:7634   */\n      or\n        /* \"#utility.yul\":7528:7667   */\n      tag_259\n      jumpi\n        /* \"#utility.yul\":7647:7665   */\n      tag_260\n      tag_165\n      jump\t// in\n    tag_260:\n        /* \"#utility.yul\":7528:7667   */\n    tag_259:\n        /* \"#utility.yul\":7312:7674   */\n      pop\n        /* \"#utility.yul\":7264:7674   */\n      swap3\n      swap2\n      pop\n      pop\n      jump\t// out\n        /* \"#utility.yul\":7680:7860   */\n    tag_166:\n        /* \"#utility.yul\":7728:7805   */\n      0x4e487b7100000000000000000000000000000000000000000000000000000000\n        /* \"#utility.yul\":7725:7726   */\n      0x00\n        /* \"#utility.yul\":7718:7806   */\n      mstore\n        /* \"#utility.yul\":7825:7829   */\n      0x12\n        /* \"#utility.yul\":7822:7823   */\n      0x04\n        /* \"#utility.yul\":7815:7830   */\n      mstore\n        /* \"#utility.yul\":7849:7853   */\n      0x24\n        /* \"#utility.yul\":7846:7847   */\n      0x00\n        /* \"#utility.yul\":7839:7854   */\n      revert\n        /* \"#utility.yul\":7866:8051   */\n    tag_67:\n        /* \"#utility.yul\":7906:7907   */\n      0x00\n        /* \"#utility.yul\":7923:7943   */\n      tag_263\n        /* \"#utility.yul\":7941:7942   */\n      dup3\n        /* \"#utility.yul\":7923:7943   */\n      tag_144\n      jump\t// in\n    tag_263:\n        /* \"#utility.yul\":7918:7943   */\n      swap2\n      pop\n        /* \"#utility.yul\":7957:7977   */\n      tag_264\n        /* \"#utility.yul\":7975:7976   */\n      dup4\n        /* \"#utility.yul\":7957:7977   */\n      tag_144\n      jump\t// in\n    tag_264:\n        /* \"#utility.yul\":7952:7977   */\n      swap3\n      pop\n        /* \"#utility.yul\":7996:7997   */\n      dup3\n        /* \"#utility.yul\":7986:8021   */\n      tag_265\n      jumpi\n        /* \"#utility.yul\":8001:8019   */\n      tag_266\n      tag_166\n      jump\t// in\n    tag_266:\n        /* \"#utility.yul\":7986:8021   */\n    tag_265:\n        /* \"#utility.yul\":8043:8044   */\n      dup3\n        /* \"#utility.yul\":8040:8041   */\n      dup3\n        /* \"#utility.yul\":8036:8045   */\n      div\n        /* \"#utility.yul\":8031:8045   */\n      swap1\n      pop\n        /* \"#utility.yul\":7866:8051   */\n      swap3\n      swap2\n      pop\n      pop\n      jump\t// out\n        /* \"#utility.yul\":8057:8248   */\n    tag_69:\n        /* \"#utility.yul\":8097:8100   */\n      0x00\n        /* \"#utility.yul\":8116:8136   */\n      tag_268\n        /* \"#utility.yul\":8134:8135   */\n      dup3\n        /* \"#utility.yul\":8116:8136   */\n      tag_144\n      jump\t// in\n    tag_268:\n        /* \"#utility.yul\":8111:8136   */\n      swap2\n      pop\n        /* \"#utility.yul\":8150:8170   */\n      tag_269\n        /* \"#utility.yul\":8168:8169   */\n      dup4\n        /* \"#utility.yul\":8150:8170   */\n      tag_144\n      jump\t// in\n    tag_269:\n        /* \"#utility.yul\":8145:8170   */\n      swap3\n      pop\n        /* \"#utility.yul\":8193:8194   */\n      dup3\n        /* \"#utility.yul\":8190:8191   */\n      dup3\n        /* \"#utility.yul\":8186:8195   */\n      add\n        /* \"#utility.yul\":8179:8195   */\n      swap1\n      pop\n        /* \"#utility.yul\":8214:8217   */\n      dup1\n        /* \"#utility.yul\":8211:8212   */\n      dup3\n        /* \"#utility.yul\":8208:8218   */\n      gt\n        /* \"#utility.yul\":8205:8241   */\n      iszero\n      tag_270\n      jumpi\n        /* \"#utility.yul\":8221:8239   */\n      tag_271\n      tag_165\n      jump\t// in\n    tag_271:\n        /* \"#utility.yul\":8205:8241   */\n    tag_270:\n        /* \"#utility.yul\":8057:8248   */\n      swap3\n      swap2\n      pop\n      pop\n      jump\t// out\n        /* \"#utility.yul\":8254:8372   */\n    tag_167:\n        /* \"#utility.yul\":8341:8365   */\n      tag_273\n        /* \"#utility.yul\":8359:8364   */\n      dup2\n        /* \"#utility.yul\":8341:8365   */\n      tag_141\n      jump\t// in\n    tag_273:\n        /* \"#utility.yul\":8336:8339   */\n      dup3\n        /* \"#utility.yul\":8329:8366   */\n      mstore\n        /* \"#utility.yul\":8254:8372   */\n      pop\n      pop\n      jump\t// out\n        /* \"#utility.yul\":8378:8710   */\n    tag_97:\n        /* \"#utility.yul\":8499:8503   */\n      0x00\n        /* \"#utility.yul\":8537:8539   */\n      0x40\n        /* \"#utility.yul\":8526:8535   */\n      dup3\n        /* \"#utility.yul\":8522:8540   */\n      add\n        /* \"#utility.yul\":8514:8540   */\n      swap1\n      pop\n        /* \"#utility.yul\":8550:8621   */\n      tag_275\n        /* \"#utility.yul\":8618:8619   */\n      0x00\n        /* \"#utility.yul\":8607:8616   */\n      dup4\n        /* \"#utility.yul\":8603:8620   */\n      add\n        /* \"#utility.yul\":8594:8600   */\n      dup6\n        /* \"#utility.yul\":8550:8621   */\n      tag_167\n      jump\t// in\n    tag_275:\n        /* \"#utility.yul\":8631:8703   */\n      tag_276\n        /* \"#utility.yul\":8699:8701   */\n      0x20\n        /* \"#utility.yul\":8688:8697   */\n      dup4\n        /* \"#utility.yul\":8684:8702   */\n      add\n        /* \"#utility.yul\":8675:8681   */\n      dup5\n        /* \"#utility.yul\":8631:8703   */\n      tag_145\n      jump\t// in\n    tag_276:\n        /* \"#utility.yul\":8378:8710   */\n      swap4\n      swap3\n      pop\n      pop\n      pop\n      jump\t// out\n        /* \"#utility.yul\":8716:8806   */\n    tag_168:\n        /* \"#utility.yul\":8750:8757   */\n      0x00\n        /* \"#utility.yul\":8793:8798   */\n      dup2\n        /* \"#utility.yul\":8786:8799   */\n      iszero\n        /* \"#utility.yul\":8779:8800   */\n      iszero\n        /* \"#utility.yul\":8768:8800   */\n      swap1\n      pop\n        /* \"#utility.yul\":8716:8806   */\n      swap2\n      swap1\n      pop\n      jump\t// out\n        /* \"#utility.yul\":8812:8928   */\n    tag_169:\n        /* \"#utility.yul\":8882:8903   */\n      tag_279\n        /* \"#utility.yul\":8897:8902   */\n      dup2\n        /* \"#utility.yul\":8882:8903   */\n      tag_168\n      jump\t// in\n    tag_279:\n        /* \"#utility.yul\":8875:8880   */\n      dup2\n        /* \"#utility.yul\":8872:8904   */\n      eq\n        /* \"#utility.yul\":8862:8922   */\n      tag_280\n      jumpi\n        /* \"#utility.yul\":8918:8919   */\n      0x00\n        /* \"#utility.yul\":8915:8916   */\n      dup1\n        /* \"#utility.yul\":8908:8920   */\n      revert\n        /* \"#utility.yul\":8862:8922   */\n    tag_280:\n        /* \"#utility.yul\":8812:8928   */\n      pop\n      jump\t// out\n        /* \"#utility.yul\":8934:9071   */\n    tag_170:\n        /* \"#utility.yul\":8988:8993   */\n      0x00\n        /* \"#utility.yul\":9019:9025   */\n      dup2\n        /* \"#utility.yul\":9013:9026   */\n      mload\n        /* \"#utility.yul\":9004:9026   */\n      swap1\n      pop\n        /* \"#utility.yul\":9035:9065   */\n      tag_282\n        /* \"#utility.yul\":9059:9064   */\n      dup2\n        /* \"#utility.yul\":9035:9065   */\n      tag_169\n      jump\t// in\n    tag_282:\n        /* \"#utility.yul\":8934:9071   */\n      swap3\n      swap2\n      pop\n      pop\n      jump\t// out\n        /* \"#utility.yul\":9077:9422   */\n    tag_101:\n        /* \"#utility.yul\":9144:9150   */\n      0x00\n        /* \"#utility.yul\":9193:9195   */\n      0x20\n        /* \"#utility.yul\":9181:9190   */\n      dup3\n        /* \"#utility.yul\":9172:9179   */\n      dup5\n        /* \"#utility.yul\":9168:9191   */\n      sub\n        /* \"#utility.yul\":9164:9196   */\n      slt\n        /* \"#utility.yul\":9161:9280   */\n      iszero\n      tag_284\n      jumpi\n        /* \"#utility.yul\":9199:9278   */\n      tag_285\n      tag_138\n      jump\t// in\n    tag_285:\n        /* \"#utility.yul\":9161:9280   */\n    tag_284:\n        /* \"#utility.yul\":9319:9320   */\n      0x00\n        /* \"#utility.yul\":9344:9405   */\n      tag_286\n        /* \"#utility.yul\":9397:9404   */\n      dup5\n        /* \"#utility.yul\":9388:9394   */\n      dup3\n        /* \"#utility.yul\":9377:9386   */\n      dup6\n        /* \"#utility.yul\":9373:9395   */\n      add\n        /* \"#utility.yul\":9344:9405   */\n      tag_170\n      jump\t// in\n    tag_286:\n        /* \"#utility.yul\":9334:9405   */\n      swap2\n      pop\n        /* \"#utility.yul\":9290:9415   */\n      pop\n        /* \"#utility.yul\":9077:9422   */\n      swap3\n      swap2\n      pop\n      pop\n      jump\t// out\n        /* \"#utility.yul\":9428:9650   */\n    tag_171:\n        /* \"#utility.yul\":9568:9602   */\n      0x596f75206d7573742070726f766964652061746c656173742033303020746f6b\n        /* \"#utility.yul\":9564:9565   */\n      0x00\n        /* \"#utility.yul\":9556:9562   */\n      dup3\n        /* \"#utility.yul\":9552:9566   */\n      add\n        /* \"#utility.yul\":9545:9603   */\n      mstore\n        /* \"#utility.yul\":9637:9642   */\n      0x656e730000000000000000000000000000000000000000000000000000000000\n        /* \"#utility.yul\":9632:9634   */\n      0x20\n        /* \"#utility.yul\":9624:9630   */\n      dup3\n        /* \"#utility.yul\":9620:9635   */\n      add\n        /* \"#utility.yul\":9613:9643   */\n      mstore\n        /* \"#utility.yul\":9428:9650   */\n      pop\n      jump\t// out\n        /* \"#utility.yul\":9656:10022   */\n    tag_172:\n        /* \"#utility.yul\":9798:9801   */\n      0x00\n        /* \"#utility.yul\":9819:9886   */\n      tag_289\n        /* \"#utility.yul\":9883:9885   */\n      0x23\n        /* \"#utility.yul\":9878:9881   */\n      dup4\n        /* \"#utility.yul\":9819:9886   */\n      tag_147\n      jump\t// in\n    tag_289:\n        /* \"#utility.yul\":9812:9886   */\n      swap2\n      pop\n        /* \"#utility.yul\":9895:9988   */\n      tag_290\n        /* \"#utility.yul\":9984:9987   */\n      dup3\n        /* \"#utility.yul\":9895:9988   */\n      tag_171\n      jump\t// in\n    tag_290:\n        /* \"#utility.yul\":10013:10015   */\n      0x40\n        /* \"#utility.yul\":10008:10011   */\n      dup3\n        /* \"#utility.yul\":10004:10016   */\n      add\n        /* \"#utility.yul\":9997:10016   */\n      swap1\n      pop\n        /* \"#utility.yul\":9656:10022   */\n      swap2\n      swap1\n      pop\n      jump\t// out\n        /* \"#utility.yul\":10028:10447   */\n    tag_108:\n        /* \"#utility.yul\":10194:10198   */\n      0x00\n        /* \"#utility.yul\":10232:10234   */\n      0x20\n        /* \"#utility.yul\":10221:10230   */\n      dup3\n        /* \"#utility.yul\":10217:10235   */\n      add\n        /* \"#utility.yul\":10209:10235   */\n      swap1\n      pop\n        /* \"#utility.yul\":10281:10290   */\n      dup2\n        /* \"#utility.yul\":10275:10279   */\n      dup2\n        /* \"#utility.yul\":10271:10291   */\n      sub\n        /* \"#utility.yul\":10267:10268   */\n      0x00\n        /* \"#utility.yul\":10256:10265   */\n      dup4\n        /* \"#utility.yul\":10252:10269   */\n      add\n        /* \"#utility.yul\":10245:10292   */\n      mstore\n        /* \"#utility.yul\":10309:10440   */\n      tag_292\n        /* \"#utility.yul\":10435:10439   */\n      dup2\n        /* \"#utility.yul\":10309:10440   */\n      tag_172\n      jump\t// in\n    tag_292:\n        /* \"#utility.yul\":10301:10440   */\n      swap1\n      pop\n        /* \"#utility.yul\":10028:10447   */\n      swap2\n      swap1\n      pop\n      jump\t// out\n        /* \"#utility.yul\":10453:10693   */\n    tag_173:\n        /* \"#utility.yul\":10593:10627   */\n      0x5468652070726f76696465642074696d65206973206e6f742076616c69642e20\n        /* \"#utility.yul\":10589:10590   */\n      0x00\n        /* \"#utility.yul\":10581:10587   */\n      dup3\n        /* \"#utility.yul\":10577:10591   */\n      add\n        /* \"#utility.yul\":10570:10628   */\n      mstore\n        /* \"#utility.yul\":10662:10685   */\n      0x6974206d75737420626520332c2036206f722031320000000000000000000000\n        /* \"#utility.yul\":10657:10659   */\n      0x20\n        /* \"#utility.yul\":10649:10655   */\n      dup3\n        /* \"#utility.yul\":10645:10660   */\n      add\n        /* \"#utility.yul\":10638:10686   */\n      mstore\n        /* \"#utility.yul\":10453:10693   */\n      pop\n      jump\t// out\n        /* \"#utility.yul\":10699:11065   */\n    tag_174:\n        /* \"#utility.yul\":10841:10844   */\n      0x00\n        /* \"#utility.yul\":10862:10929   */\n      tag_295\n        /* \"#utility.yul\":10926:10928   */\n      0x35\n        /* \"#utility.yul\":10921:10924   */\n      dup4\n        /* \"#utility.yul\":10862:10929   */\n      tag_147\n      jump\t// in\n    tag_295:\n        /* \"#utility.yul\":10855:10929   */\n      swap2\n      pop\n        /* \"#utility.yul\":10938:11031   */\n      tag_296\n        /* \"#utility.yul\":11027:11030   */\n      dup3\n        /* \"#utility.yul\":10938:11031   */\n      tag_173\n      jump\t// in\n    tag_296:\n        /* \"#utility.yul\":11056:11058   */\n      0x40\n        /* \"#utility.yul\":11051:11054   */\n      dup3\n        /* \"#utility.yul\":11047:11059   */\n      add\n        /* \"#utility.yul\":11040:11059   */\n      swap1\n      pop\n        /* \"#utility.yul\":10699:11065   */\n      swap2\n      swap1\n      pop\n      jump\t// out\n        /* \"#utility.yul\":11071:11490   */\n    tag_113:\n        /* \"#utility.yul\":11237:11241   */\n      0x00\n        /* \"#utility.yul\":11275:11277   */\n      0x20\n        /* \"#utility.yul\":11264:11273   */\n      dup3\n        /* \"#utility.yul\":11260:11278   */\n      add\n        /* \"#utility.yul\":11252:11278   */\n      swap1\n      pop\n        /* \"#utility.yul\":11324:11333   */\n      dup2\n        /* \"#utility.yul\":11318:11322   */\n      dup2\n        /* \"#utility.yul\":11314:11334   */\n      sub\n        /* \"#utility.yul\":11310:11311   */\n      0x00\n        /* \"#utility.yul\":11299:11308   */\n      dup4\n        /* \"#utility.yul\":11295:11312   */\n      add\n        /* \"#utility.yul\":11288:11335   */\n      mstore\n        /* \"#utility.yul\":11352:11483   */\n      tag_298\n        /* \"#utility.yul\":11478:11482   */\n      dup2\n        /* \"#utility.yul\":11352:11483   */\n      tag_174\n      jump\t// in\n    tag_298:\n        /* \"#utility.yul\":11344:11483   */\n      swap1\n      pop\n        /* \"#utility.yul\":11071:11490   */\n      swap2\n      swap1\n      pop\n      jump\t// out\n        /* \"#utility.yul\":11496:11938   */\n    tag_125:\n        /* \"#utility.yul\":11645:11649   */\n      0x00\n        /* \"#utility.yul\":11683:11685   */\n      0x60\n        /* \"#utility.yul\":11672:11681   */\n      dup3\n        /* \"#utility.yul\":11668:11686   */\n      add\n        /* \"#utility.yul\":11660:11686   */\n      swap1\n      pop\n        /* \"#utility.yul\":11696:11767   */\n      tag_300\n        /* \"#utility.yul\":11764:11765   */\n      0x00\n        /* \"#utility.yul\":11753:11762   */\n      dup4\n        /* \"#utility.yul\":11749:11766   */\n      add\n        /* \"#utility.yul\":11740:11746   */\n      dup7\n        /* \"#utility.yul\":11696:11767   */\n      tag_167\n      jump\t// in\n    tag_300:\n        /* \"#utility.yul\":11777:11849   */\n      tag_301\n        /* \"#utility.yul\":11845:11847   */\n      0x20\n        /* \"#utility.yul\":11834:11843   */\n      dup4\n        /* \"#utility.yul\":11830:11848   */\n      add\n        /* \"#utility.yul\":11821:11827   */\n      dup6\n        /* \"#utility.yul\":11777:11849   */\n      tag_167\n      jump\t// in\n    tag_301:\n        /* \"#utility.yul\":11859:11931   */\n      tag_302\n        /* \"#utility.yul\":11927:11929   */\n      0x40\n        /* \"#utility.yul\":11916:11925   */\n      dup4\n        /* \"#utility.yul\":11912:11930   */\n      add\n        /* \"#utility.yul\":11903:11909   */\n      dup5\n        /* \"#utility.yul\":11859:11931   */\n      tag_145\n      jump\t// in\n    tag_302:\n        /* \"#utility.yul\":11496:11938   */\n      swap5\n      swap4\n      pop\n      pop\n      pop\n      pop\n      jump\t// out\n        /* \"#utility.yul\":11944:12166   */\n    tag_132:\n        /* \"#utility.yul\":12037:12041   */\n      0x00\n        /* \"#utility.yul\":12075:12077   */\n      0x20\n        /* \"#utility.yul\":12064:12073   */\n      dup3\n        /* \"#utility.yul\":12060:12078   */\n      add\n        /* \"#utility.yul\":12052:12078   */\n      swap1\n      pop\n        /* \"#utility.yul\":12088:12159   */\n      tag_304\n        /* \"#utility.yul\":12156:12157   */\n      0x00\n        /* \"#utility.yul\":12145:12154   */\n      dup4\n        /* \"#utility.yul\":12141:12158   */\n      add\n        /* \"#utility.yul\":12132:12138   */\n      dup5\n        /* \"#utility.yul\":12088:12159   */\n      tag_167\n      jump\t// in\n    tag_304:\n        /* \"#utility.yul\":11944:12166   */\n      swap3\n      swap2\n      pop\n      pop\n      jump\t// out\n        /* \"#utility.yul\":12172:12315   */\n    tag_175:\n        /* \"#utility.yul\":12229:12234   */\n      0x00\n        /* \"#utility.yul\":12260:12266   */\n      dup2\n        /* \"#utility.yul\":12254:12267   */\n      mload\n        /* \"#utility.yul\":12245:12267   */\n      swap1\n      pop\n        /* \"#utility.yul\":12276:12309   */\n      tag_306\n        /* \"#utility.yul\":12303:12308   */\n      dup2\n        /* \"#utility.yul\":12276:12309   */\n      tag_151\n      jump\t// in\n    tag_306:\n        /* \"#utility.yul\":12172:12315   */\n      swap3\n      swap2\n      pop\n      pop\n      jump\t// out\n        /* \"#utility.yul\":12321:12672   */\n    tag_136:\n        /* \"#utility.yul\":12391:12397   */\n      0x00\n        /* \"#utility.yul\":12440:12442   */\n      0x20\n        /* \"#utility.yul\":12428:12437   */\n      dup3\n        /* \"#utility.yul\":12419:12426   */\n      dup5\n        /* \"#utility.yul\":12415:12438   */\n      sub\n        /* \"#utility.yul\":12411:12443   */\n      slt\n        /* \"#utility.yul\":12408:12527   */\n      iszero\n      tag_308\n      jumpi\n        /* \"#utility.yul\":12446:12525   */\n      tag_309\n      tag_138\n      jump\t// in\n    tag_309:\n        /* \"#utility.yul\":12408:12527   */\n    tag_308:\n        /* \"#utility.yul\":12566:12567   */\n      0x00\n        /* \"#utility.yul\":12591:12655   */\n      tag_310\n        /* \"#utility.yul\":12647:12654   */\n      dup5\n        /* \"#utility.yul\":12638:12644   */\n      dup3\n        /* \"#utility.yul\":12627:12636   */\n      dup6\n        /* \"#utility.yul\":12623:12645   */\n      add\n        /* \"#utility.yul\":12591:12655   */\n      tag_175\n      jump\t// in\n    tag_310:\n        /* \"#utility.yul\":12581:12655   */\n      swap2\n      pop\n        /* \"#utility.yul\":12537:12665   */\n      pop\n        /* \"#utility.yul\":12321:12672   */\n      swap3\n      swap2\n      pop\n      pop\n      jump\t// out\n\n    auxdata: 0xa26469706673582212200b8a3d54874c33c51bb30fb86221e1d1d8df02ac9a03a0b94ac6a1548921b05364736f6c634300081a0033\n}\n",
				"bytecode": {
					"linkReferences": {},
					"object": "608060405234801561000f575f80fd5b50604051611445380380611445833981810160405281019061003191906100dc565b60015f819055508060015f6101000a81548173ffffffffffffffffffffffffffffffffffffffff021916908373ffffffffffffffffffffffffffffffffffffffff16021790555050610107565b5f80fd5b5f73ffffffffffffffffffffffffffffffffffffffff82169050919050565b5f6100ab82610082565b9050919050565b6100bb816100a1565b81146100c5575f80fd5b50565b5f815190506100d6816100b2565b92915050565b5f602082840312156100f1576100f061007e565b5b5f6100fe848285016100c8565b91505092915050565b611331806101145f395ff3fe60806040526004361061007a575f3560e01c806358fe020c1161004d57806358fe020c146101505780635f5152261461018c578063ab32eb69146101c8578063adca9b72146102045761007a565b8063399080ec1461007e5780633ccfd60b146100ba57806342ea02c1146100d8578063483174b614610114575b5f80fd5b348015610089575f80fd5b506100a4600480360381019061009f9190610c96565b61022e565b6040516100b19190610cd9565b60405180910390f35b6100c2610274565b6040516100cf9190610d62565b60405180910390f35b3480156100e3575f80fd5b506100fe60048036038101906100f99190610de3565b6107a1565b60405161010b9190610d62565b60405180910390f35b34801561011f575f80fd5b5061013a60048036038101906101359190610c96565b610b33565b6040516101479190610cd9565b60405180910390f35b34801561015b575f80fd5b5061017660048036038101906101719190610c96565b610b48565b6040516101839190610cd9565b60405180910390f35b348015610197575f80fd5b506101b260048036038101906101ad9190610c96565b610b5d565b6040516101bf9190610cd9565b60405180910390f35b3480156101d3575f80fd5b506101ee60048036038101906101e99190610c96565b610bfe565b6040516101fb9190610cd9565b60405180910390f35b34801561020f575f80fd5b50610218610c13565b6040516102259190610e7c565b60405180910390f35b5f60025f8373ffffffffffffffffffffffffffffffffffffffff1673ffffffffffffffffffffffffffffffffffffffff1681526020019081526020015f20549050919050565b60605f60025f3373ffffffffffffffffffffffffffffffffffffffff1673ffffffffffffffffffffffffffffffffffffffff1681526020019081526020015f2054905061012c8110156102fc576040517f08c379a00000000000000000000000000000000000000000000000000000000081526004016102f390610edf565b60405180910390fd5b4260035f3373ffffffffffffffffffffffffffffffffffffffff1673ffffffffffffffffffffffffffffffffffffffff1681526020019081526020015f2054111561037c576040517f08c379a000000000000000000000000000000000000000000000000000000000815260040161037390610f6d565b60405180910390fd5b5f60035f3373ffffffffffffffffffffffffffffffffffffffff1673ffffffffffffffffffffffffffffffffffffffff1681526020019081526020015f2054426103c69190610fb8565b9050600360045f3373ffffffffffffffffffffffffffffffffffffffff1673ffffffffffffffffffffffffffffffffffffffff1681526020019081526020015f205403610438576064601e8361041c9190610feb565b6104269190611059565b826104319190611089565b91506104ff565b600660045f3373ffffffffffffffffffffffffffffffffffffffff1673ffffffffffffffffffffffffffffffffffffffff1681526020019081526020015f2054036104a8576064603c8361048c9190610feb565b6104969190611059565b826104a19190611089565b91506104fe565b600c60045f3373ffffffffffffffffffffffffffffffffffffffff1673ffffffffffffffffffffffffffffffffffffffff1681526020019081526020015f2054036104fd576002826104fa9190610feb565b91505b5b5b426276a7004261050f9190611089565b6105199190610fb8565b811061054a576064601e8361052e9190610feb565b6105389190611059565b826105439190611089565b91506105c7565b426276a7004261055a9190611089565b6105649190610fb8565b8110610595576064603c836105799190610feb565b6105839190611059565b8261058e9190611089565b91506105c6565b426276a700426105a59190611089565b6105af9190610fb8565b81106105c5576002826105c29190610feb565b91505b5b5b5f60015f9054906101000a900473ffffffffffffffffffffffffffffffffffffffff1673ffffffffffffffffffffffffffffffffffffffff1663a9059cbb33856040518363ffffffff1660e01b81526004016106249291906110cb565b6020604051808303815f875af1158015610640573d5f803e3d5ffd5b505050506040513d601f19601f820116820180604052508101906106649190611127565b90508061069d576040517f8ecca7d100000000000000000000000000000000000000000000000000000000815260040160405180910390fd5b5f60025f3373ffffffffffffffffffffffffffffffffffffffff1673ffffffffffffffffffffffffffffffffffffffff1681526020019081526020015f20819055505f60035f3373ffffffffffffffffffffffffffffffffffffffff1673ffffffffffffffffffffffffffffffffffffffff1681526020019081526020015f20819055505f60045f3373ffffffffffffffffffffffffffffffffffffffff1673ffffffffffffffffffffffffffffffffffffffff1681526020019081526020015f20819055506040518060400160405280600781526020017f5375636365737300000000000000000000000000000000000000000000000000815250935050505090565b6060825f81036107dd576040517f9b677fa000000000000000000000000000000000000000000000000000000000815260040160405180910390fd5b61012c841015610822576040517f08c379a0000000000000000000000000000000000000000000000000000000008152600401610819906111c2565b60405180910390fd5b60038361ffff161480610839575060068361ffff16145b806108485750600c8361ffff16145b610887576040517f08c379a000000000000000000000000000000000000000000000000000000000815260040161087e90611250565b60405180910390fd5b5f4290505f60038561ffff16036108b1576276a700905080826108aa9190611089565b915061093d565b60068561ffff16036108d65762ed4e00905080826108cf9190611089565b915061093c565b600c8561ffff16036108fc576301da9c00905080826108f59190611089565b915061093b565b6040518060400160405280601f81526020017f5468652070726f76696465642074696d65206973206e6f742076616c69642e0081525093505050610b2c565b5b5b8560025f3373ffffffffffffffffffffffffffffffffffffffff1673ffffffffffffffffffffffffffffffffffffffff1681526020019081526020015f205f8282546109899190611089565b925050819055505f60015f9054906101000a900473ffffffffffffffffffffffffffffffffffffffff1673ffffffffffffffffffffffffffffffffffffffff166323b872dd33308a6040518463ffffffff1660e01b81526004016109ef9392919061126e565b6020604051808303815f875af1158015610a0b573d5f803e3d5ffd5b505050506040513d601f19601f82011682018060405250810190610a2f9190611127565b905080610a68576040517feb4c684700000000000000000000000000000000000000000000000000000000815260040160405180910390fd5b8260035f3373ffffffffffffffffffffffffffffffffffffffff1673ffffffffffffffffffffffffffffffffffffffff1681526020019081526020015f20819055508561ffff1660045f3373ffffffffffffffffffffffffffffffffffffffff1673ffffffffffffffffffffffffffffffffffffffff1681526020019081526020015f20819055506040518060400160405280600b81526020017f7375636365737366756c6c00000000000000000000000000000000000000000081525094505050505b5092915050565b6003602052805f5260405f205f915090505481565b6004602052805f5260405f205f915090505481565b5f60015f9054906101000a900473ffffffffffffffffffffffffffffffffffffffff1673ffffffffffffffffffffffffffffffffffffffff166370a08231836040518263ffffffff1660e01b8152600401610bb891906112a3565b602060405180830381865afa158015610bd3573d5f803e3d5ffd5b505050506040513d601f19601f82011682018060405250810190610bf791906112d0565b9050919050565b6002602052805f5260405f205f915090505481565b60015f9054906101000a900473ffffffffffffffffffffffffffffffffffffffff1681565b5f80fd5b5f73ffffffffffffffffffffffffffffffffffffffff82169050919050565b5f610c6582610c3c565b9050919050565b610c7581610c5b565b8114610c7f575f80fd5b50565b5f81359050610c9081610c6c565b92915050565b5f60208284031215610cab57610caa610c38565b5b5f610cb884828501610c82565b91505092915050565b5f819050919050565b610cd381610cc1565b82525050565b5f602082019050610cec5f830184610cca565b92915050565b5f81519050919050565b5f82825260208201905092915050565b8281835e5f83830152505050565b5f601f19601f8301169050919050565b5f610d3482610cf2565b610d3e8185610cfc565b9350610d4e818560208601610d0c565b610d5781610d1a565b840191505092915050565b5f6020820190508181035f830152610d7a8184610d2a565b905092915050565b610d8b81610cc1565b8114610d95575f80fd5b50565b5f81359050610da681610d82565b92915050565b5f61ffff82169050919050565b610dc281610dac565b8114610dcc575f80fd5b50565b5f81359050610ddd81610db9565b92915050565b5f8060408385031215610df957610df8610c38565b5b5f610e0685828601610d98565b9250506020610e1785828601610dcf565b9150509250929050565b5f819050919050565b5f610e44610e3f610e3a84610c3c565b610e21565b610c3c565b9050919050565b5f610e5582610e2a565b9050919050565b5f610e6682610e4b565b9050919050565b610e7681610e5c565b82525050565b5f602082019050610e8f5f830184610e6d565b92915050565b7f596f752068617665206e6f7420656e6f7567682062616c616e636500000000005f82015250565b5f610ec9601b83610cfc565b9150610ed482610e95565b602082019050919050565b5f6020820190508181035f830152610ef681610ebd565b9050919050565b7f596f7572207374616b696e672074696d65206973206e6f7420636f6d706c65745f8201527f6564000000000000000000000000000000000000000000000000000000000000602082015250565b5f610f57602283610cfc565b9150610f6282610efd565b604082019050919050565b5f6020820190508181035f830152610f8481610f4b565b9050919050565b7f4e487b71000000000000000000000000000000000000000000000000000000005f52601160045260245ffd5b5f610fc282610cc1565b9150610fcd83610cc1565b9250828203905081811115610fe557610fe4610f8b565b5b92915050565b5f610ff582610cc1565b915061100083610cc1565b925082820261100e81610cc1565b9150828204841483151761102557611024610f8b565b5b5092915050565b7f4e487b71000000000000000000000000000000000000000000000000000000005f52601260045260245ffd5b5f61106382610cc1565b915061106e83610cc1565b92508261107e5761107d61102c565b5b828204905092915050565b5f61109382610cc1565b915061109e83610cc1565b92508282019050808211156110b6576110b5610f8b565b5b92915050565b6110c581610c5b565b82525050565b5f6040820190506110de5f8301856110bc565b6110eb6020830184610cca565b9392505050565b5f8115159050919050565b611106816110f2565b8114611110575f80fd5b50565b5f81519050611121816110fd565b92915050565b5f6020828403121561113c5761113b610c38565b5b5f61114984828501611113565b91505092915050565b7f596f75206d7573742070726f766964652061746c656173742033303020746f6b5f8201527f656e730000000000000000000000000000000000000000000000000000000000602082015250565b5f6111ac602383610cfc565b91506111b782611152565b604082019050919050565b5f6020820190508181035f8301526111d9816111a0565b9050919050565b7f5468652070726f76696465642074696d65206973206e6f742076616c69642e205f8201527f6974206d75737420626520332c2036206f722031320000000000000000000000602082015250565b5f61123a603583610cfc565b9150611245826111e0565b604082019050919050565b5f6020820190508181035f8301526112678161122e565b9050919050565b5f6060820190506112815f8301866110bc565b61128e60208301856110bc565b61129b6040830184610cca565b949350505050565b5f6020820190506112b65f8301846110bc565b92915050565b5f815190506112ca81610d82565b92915050565b5f602082840312156112e5576112e4610c38565b5b5f6112f2848285016112bc565b9150509291505056fea26469706673582212200b8a3d54874c33c51bb30fb86221e1d1d8df02ac9a03a0b94ac6a1548921b05364736f6c634300081a0033",
					"opcodes": "PUSH1 0x80 PUSH1 0x40 MSTORE CALLVALUE DUP1 ISZERO PUSH2 0xF JUMPI PUSH0 DUP1 REVERT JUMPDEST POP PUSH1 0x40 MLOAD PUSH2 0x1445 CODESIZE SUB DUP1 PUSH2 0x1445 DUP4 CODECOPY DUP2 DUP2 ADD PUSH1 0x40 MSTORE DUP2 ADD SWAP1 PUSH2 0x31 SWAP2 SWAP1 PUSH2 0xDC JUMP JUMPDEST PUSH1 0x1 PUSH0 DUP2 SWAP1 SSTORE POP DUP1 PUSH1 0x1 PUSH0 PUSH2 0x100 EXP DUP2 SLOAD DUP2 PUSH20 0xFFFFFFFFFFFFFFFFFFFFFFFFFFFFFFFFFFFFFFFF MUL NOT AND SWAP1 DUP4 PUSH20 0xFFFFFFFFFFFFFFFFFFFFFFFFFFFFFFFFFFFFFFFF AND MUL OR SWAP1 SSTORE POP POP PUSH2 0x107 JUMP JUMPDEST PUSH0 DUP1 REVERT JUMPDEST PUSH0 PUSH20 0xFFFFFFFFFFFFFFFFFFFFFFFFFFFFFFFFFFFFFFFF DUP3 AND SWAP1 POP SWAP2 SWAP1 POP JUMP JUMPDEST PUSH0 PUSH2 0xAB DUP3 PUSH2 0x82 JUMP JUMPDEST SWAP1 POP SWAP2 SWAP1 POP JUMP JUMPDEST PUSH2 0xBB DUP2 PUSH2 0xA1 JUMP JUMPDEST DUP2 EQ PUSH2 0xC5 JUMPI PUSH0 DUP1 REVERT JUMPDEST POP JUMP JUMPDEST PUSH0 DUP2 MLOAD SWAP1 POP PUSH2 0xD6 DUP2 PUSH2 0xB2 JUMP JUMPDEST SWAP3 SWAP2 POP POP JUMP JUMPDEST PUSH0 PUSH1 0x20 DUP3 DUP5 SUB SLT ISZERO PUSH2 0xF1 JUMPI PUSH2 0xF0 PUSH2 0x7E JUMP JUMPDEST JUMPDEST PUSH0 PUSH2 0xFE DUP5 DUP3 DUP6 ADD PUSH2 0xC8 JUMP JUMPDEST SWAP2 POP POP SWAP3 SWAP2 POP POP JUMP JUMPDEST PUSH2 0x1331 DUP1 PUSH2 0x114 PUSH0 CODECOPY PUSH0 RETURN INVALID PUSH1 0x80 PUSH1 0x40 MSTORE PUSH1 0x4 CALLDATASIZE LT PUSH2 0x7A JUMPI PUSH0 CALLDATALOAD PUSH1 0xE0 SHR DUP1 PUSH4 0x58FE020C GT PUSH2 0x4D JUMPI DUP1 PUSH4 0x58FE020C EQ PUSH2 0x150 JUMPI DUP1 PUSH4 0x5F515226 EQ PUSH2 0x18C JUMPI DUP1 PUSH4 0xAB32EB69 EQ PUSH2 0x1C8 JUMPI DUP1 PUSH4 0xADCA9B72 EQ PUSH2 0x204 JUMPI PUSH2 0x7A JUMP JUMPDEST DUP1 PUSH4 0x399080EC EQ PUSH2 0x7E JUMPI DUP1 PUSH4 0x3CCFD60B EQ PUSH2 0xBA JUMPI DUP1 PUSH4 0x42EA02C1 EQ PUSH2 0xD8 JUMPI DUP1 PUSH4 0x483174B6 EQ PUSH2 0x114 JUMPI JUMPDEST PUSH0 DUP1 REVERT JUMPDEST CALLVALUE DUP1 ISZERO PUSH2 0x89 JUMPI PUSH0 DUP1 REVERT JUMPDEST POP PUSH2 0xA4 PUSH1 0x4 DUP1 CALLDATASIZE SUB DUP2 ADD SWAP1 PUSH2 0x9F SWAP2 SWAP1 PUSH2 0xC96 JUMP JUMPDEST PUSH2 0x22E JUMP JUMPDEST PUSH1 0x40 MLOAD PUSH2 0xB1 SWAP2 SWAP1 PUSH2 0xCD9 JUMP JUMPDEST PUSH1 0x40 MLOAD DUP1 SWAP2 SUB SWAP1 RETURN JUMPDEST PUSH2 0xC2 PUSH2 0x274 JUMP JUMPDEST PUSH1 0x40 MLOAD PUSH2 0xCF SWAP2 SWAP1 PUSH2 0xD62 JUMP JUMPDEST PUSH1 0x40 MLOAD DUP1 SWAP2 SUB SWAP1 RETURN JUMPDEST CALLVALUE DUP1 ISZERO PUSH2 0xE3 JUMPI PUSH0 DUP1 REVERT JUMPDEST POP PUSH2 0xFE PUSH1 0x4 DUP1 CALLDATASIZE SUB DUP2 ADD SWAP1 PUSH2 0xF9 SWAP2 SWAP1 PUSH2 0xDE3 JUMP JUMPDEST PUSH2 0x7A1 JUMP JUMPDEST PUSH1 0x40 MLOAD PUSH2 0x10B SWAP2 SWAP1 PUSH2 0xD62 JUMP JUMPDEST PUSH1 0x40 MLOAD DUP1 SWAP2 SUB SWAP1 RETURN JUMPDEST CALLVALUE DUP1 ISZERO PUSH2 0x11F JUMPI PUSH0 DUP1 REVERT JUMPDEST POP PUSH2 0x13A PUSH1 0x4 DUP1 CALLDATASIZE SUB DUP2 ADD SWAP1 PUSH2 0x135 SWAP2 SWAP1 PUSH2 0xC96 JUMP JUMPDEST PUSH2 0xB33 JUMP JUMPDEST PUSH1 0x40 MLOAD PUSH2 0x147 SWAP2 SWAP1 PUSH2 0xCD9 JUMP JUMPDEST PUSH1 0x40 MLOAD DUP1 SWAP2 SUB SWAP1 RETURN JUMPDEST CALLVALUE DUP1 ISZERO PUSH2 0x15B JUMPI PUSH0 DUP1 REVERT JUMPDEST POP PUSH2 0x176 PUSH1 0x4 DUP1 CALLDATASIZE SUB DUP2 ADD SWAP1 PUSH2 0x171 SWAP2 SWAP1 PUSH2 0xC96 JUMP JUMPDEST PUSH2 0xB48 JUMP JUMPDEST PUSH1 0x40 MLOAD PUSH2 0x183 SWAP2 SWAP1 PUSH2 0xCD9 JUMP JUMPDEST PUSH1 0x40 MLOAD DUP1 SWAP2 SUB SWAP1 RETURN JUMPDEST CALLVALUE DUP1 ISZERO PUSH2 0x197 JUMPI PUSH0 DUP1 REVERT JUMPDEST POP PUSH2 0x1B2 PUSH1 0x4 DUP1 CALLDATASIZE SUB DUP2 ADD SWAP1 PUSH2 0x1AD SWAP2 SWAP1 PUSH2 0xC96 JUMP JUMPDEST PUSH2 0xB5D JUMP JUMPDEST PUSH1 0x40 MLOAD PUSH2 0x1BF SWAP2 SWAP1 PUSH2 0xCD9 JUMP JUMPDEST PUSH1 0x40 MLOAD DUP1 SWAP2 SUB SWAP1 RETURN JUMPDEST CALLVALUE DUP1 ISZERO PUSH2 0x1D3 JUMPI PUSH0 DUP1 REVERT JUMPDEST POP PUSH2 0x1EE PUSH1 0x4 DUP1 CALLDATASIZE SUB DUP2 ADD SWAP1 PUSH2 0x1E9 SWAP2 SWAP1 PUSH2 0xC96 JUMP JUMPDEST PUSH2 0xBFE JUMP JUMPDEST PUSH1 0x40 MLOAD PUSH2 0x1FB SWAP2 SWAP1 PUSH2 0xCD9 JUMP JUMPDEST PUSH1 0x40 MLOAD DUP1 SWAP2 SUB SWAP1 RETURN JUMPDEST CALLVALUE DUP1 ISZERO PUSH2 0x20F JUMPI PUSH0 DUP1 REVERT JUMPDEST POP PUSH2 0x218 PUSH2 0xC13 JUMP JUMPDEST PUSH1 0x40 MLOAD PUSH2 0x225 SWAP2 SWAP1 PUSH2 0xE7C JUMP JUMPDEST PUSH1 0x40 MLOAD DUP1 SWAP2 SUB SWAP1 RETURN JUMPDEST PUSH0 PUSH1 0x2 PUSH0 DUP4 PUSH20 0xFFFFFFFFFFFFFFFFFFFFFFFFFFFFFFFFFFFFFFFF AND PUSH20 0xFFFFFFFFFFFFFFFFFFFFFFFFFFFFFFFFFFFFFFFF AND DUP2 MSTORE PUSH1 0x20 ADD SWAP1 DUP2 MSTORE PUSH1 0x20 ADD PUSH0 KECCAK256 SLOAD SWAP1 POP SWAP2 SWAP1 POP JUMP JUMPDEST PUSH1 0x60 PUSH0 PUSH1 0x2 PUSH0 CALLER PUSH20 0xFFFFFFFFFFFFFFFFFFFFFFFFFFFFFFFFFFFFFFFF AND PUSH20 0xFFFFFFFFFFFFFFFFFFFFFFFFFFFFFFFFFFFFFFFF AND DUP2 MSTORE PUSH1 0x20 ADD SWAP1 DUP2 MSTORE PUSH1 0x20 ADD PUSH0 KECCAK256 SLOAD SWAP1 POP PUSH2 0x12C DUP2 LT ISZERO PUSH2 0x2FC JUMPI PUSH1 0x40 MLOAD PUSH32 0x8C379A000000000000000000000000000000000000000000000000000000000 DUP2 MSTORE PUSH1 0x4 ADD PUSH2 0x2F3 SWAP1 PUSH2 0xEDF JUMP JUMPDEST PUSH1 0x40 MLOAD DUP1 SWAP2 SUB SWAP1 REVERT JUMPDEST TIMESTAMP PUSH1 0x3 PUSH0 CALLER PUSH20 0xFFFFFFFFFFFFFFFFFFFFFFFFFFFFFFFFFFFFFFFF AND PUSH20 0xFFFFFFFFFFFFFFFFFFFFFFFFFFFFFFFFFFFFFFFF AND DUP2 MSTORE PUSH1 0x20 ADD SWAP1 DUP2 MSTORE PUSH1 0x20 ADD PUSH0 KECCAK256 SLOAD GT ISZERO PUSH2 0x37C JUMPI PUSH1 0x40 MLOAD PUSH32 0x8C379A000000000000000000000000000000000000000000000000000000000 DUP2 MSTORE PUSH1 0x4 ADD PUSH2 0x373 SWAP1 PUSH2 0xF6D JUMP JUMPDEST PUSH1 0x40 MLOAD DUP1 SWAP2 SUB SWAP1 REVERT JUMPDEST PUSH0 PUSH1 0x3 PUSH0 CALLER PUSH20 0xFFFFFFFFFFFFFFFFFFFFFFFFFFFFFFFFFFFFFFFF AND PUSH20 0xFFFFFFFFFFFFFFFFFFFFFFFFFFFFFFFFFFFFFFFF AND DUP2 MSTORE PUSH1 0x20 ADD SWAP1 DUP2 MSTORE PUSH1 0x20 ADD PUSH0 KECCAK256 SLOAD TIMESTAMP PUSH2 0x3C6 SWAP2 SWAP1 PUSH2 0xFB8 JUMP JUMPDEST SWAP1 POP PUSH1 0x3 PUSH1 0x4 PUSH0 CALLER PUSH20 0xFFFFFFFFFFFFFFFFFFFFFFFFFFFFFFFFFFFFFFFF AND PUSH20 0xFFFFFFFFFFFFFFFFFFFFFFFFFFFFFFFFFFFFFFFF AND DUP2 MSTORE PUSH1 0x20 ADD SWAP1 DUP2 MSTORE PUSH1 0x20 ADD PUSH0 KECCAK256 SLOAD SUB PUSH2 0x438 JUMPI PUSH1 0x64 PUSH1 0x1E DUP4 PUSH2 0x41C SWAP2 SWAP1 PUSH2 0xFEB JUMP JUMPDEST PUSH2 0x426 SWAP2 SWAP1 PUSH2 0x1059 JUMP JUMPDEST DUP3 PUSH2 0x431 SWAP2 SWAP1 PUSH2 0x1089 JUMP JUMPDEST SWAP2 POP PUSH2 0x4FF JUMP JUMPDEST PUSH1 0x6 PUSH1 0x4 PUSH0 CALLER PUSH20 0xFFFFFFFFFFFFFFFFFFFFFFFFFFFFFFFFFFFFFFFF AND PUSH20 0xFFFFFFFFFFFFFFFFFFFFFFFFFFFFFFFFFFFFFFFF AND DUP2 MSTORE PUSH1 0x20 ADD SWAP1 DUP2 MSTORE PUSH1 0x20 ADD PUSH0 KECCAK256 SLOAD SUB PUSH2 0x4A8 JUMPI PUSH1 0x64 PUSH1 0x3C DUP4 PUSH2 0x48C SWAP2 SWAP1 PUSH2 0xFEB JUMP JUMPDEST PUSH2 0x496 SWAP2 SWAP1 PUSH2 0x1059 JUMP JUMPDEST DUP3 PUSH2 0x4A1 SWAP2 SWAP1 PUSH2 0x1089 JUMP JUMPDEST SWAP2 POP PUSH2 0x4FE JUMP JUMPDEST PUSH1 0xC PUSH1 0x4 PUSH0 CALLER PUSH20 0xFFFFFFFFFFFFFFFFFFFFFFFFFFFFFFFFFFFFFFFF AND PUSH20 0xFFFFFFFFFFFFFFFFFFFFFFFFFFFFFFFFFFFFFFFF AND DUP2 MSTORE PUSH1 0x20 ADD SWAP1 DUP2 MSTORE PUSH1 0x20 ADD PUSH0 KECCAK256 SLOAD SUB PUSH2 0x4FD JUMPI PUSH1 0x2 DUP3 PUSH2 0x4FA SWAP2 SWAP1 PUSH2 0xFEB JUMP JUMPDEST SWAP2 POP JUMPDEST JUMPDEST JUMPDEST TIMESTAMP PUSH3 0x76A700 TIMESTAMP PUSH2 0x50F SWAP2 SWAP1 PUSH2 0x1089 JUMP JUMPDEST PUSH2 0x519 SWAP2 SWAP1 PUSH2 0xFB8 JUMP JUMPDEST DUP2 LT PUSH2 0x54A JUMPI PUSH1 0x64 PUSH1 0x1E DUP4 PUSH2 0x52E SWAP2 SWAP1 PUSH2 0xFEB JUMP JUMPDEST PUSH2 0x538 SWAP2 SWAP1 PUSH2 0x1059 JUMP JUMPDEST DUP3 PUSH2 0x543 SWAP2 SWAP1 PUSH2 0x1089 JUMP JUMPDEST SWAP2 POP PUSH2 0x5C7 JUMP JUMPDEST TIMESTAMP PUSH3 0x76A700 TIMESTAMP PUSH2 0x55A SWAP2 SWAP1 PUSH2 0x1089 JUMP JUMPDEST PUSH2 0x564 SWAP2 SWAP1 PUSH2 0xFB8 JUMP JUMPDEST DUP2 LT PUSH2 0x595 JUMPI PUSH1 0x64 PUSH1 0x3C DUP4 PUSH2 0x579 SWAP2 SWAP1 PUSH2 0xFEB JUMP JUMPDEST PUSH2 0x583 SWAP2 SWAP1 PUSH2 0x1059 JUMP JUMPDEST DUP3 PUSH2 0x58E SWAP2 SWAP1 PUSH2 0x1089 JUMP JUMPDEST SWAP2 POP PUSH2 0x5C6 JUMP JUMPDEST TIMESTAMP PUSH3 0x76A700 TIMESTAMP PUSH2 0x5A5 SWAP2 SWAP1 PUSH2 0x1089 JUMP JUMPDEST PUSH2 0x5AF SWAP2 SWAP1 PUSH2 0xFB8 JUMP JUMPDEST DUP2 LT PUSH2 0x5C5 JUMPI PUSH1 0x2 DUP3 PUSH2 0x5C2 SWAP2 SWAP1 PUSH2 0xFEB JUMP JUMPDEST SWAP2 POP JUMPDEST JUMPDEST JUMPDEST PUSH0 PUSH1 0x1 PUSH0 SWAP1 SLOAD SWAP1 PUSH2 0x100 EXP SWAP1 DIV PUSH20 0xFFFFFFFFFFFFFFFFFFFFFFFFFFFFFFFFFFFFFFFF AND PUSH20 0xFFFFFFFFFFFFFFFFFFFFFFFFFFFFFFFFFFFFFFFF AND PUSH4 0xA9059CBB CALLER DUP6 PUSH1 0x40 MLOAD DUP4 PUSH4 0xFFFFFFFF AND PUSH1 0xE0 SHL DUP2 MSTORE PUSH1 0x4 ADD PUSH2 0x624 SWAP3 SWAP2 SWAP1 PUSH2 0x10CB JUMP JUMPDEST PUSH1 0x20 PUSH1 0x40 MLOAD DUP1 DUP4 SUB DUP2 PUSH0 DUP8 GAS CALL ISZERO DUP1 ISZERO PUSH2 0x640 JUMPI RETURNDATASIZE PUSH0 DUP1 RETURNDATACOPY RETURNDATASIZE PUSH0 REVERT JUMPDEST POP POP POP POP PUSH1 0x40 MLOAD RETURNDATASIZE PUSH1 0x1F NOT PUSH1 0x1F DUP3 ADD AND DUP3 ADD DUP1 PUSH1 0x40 MSTORE POP DUP2 ADD SWAP1 PUSH2 0x664 SWAP2 SWAP1 PUSH2 0x1127 JUMP JUMPDEST SWAP1 POP DUP1 PUSH2 0x69D JUMPI PUSH1 0x40 MLOAD PUSH32 0x8ECCA7D100000000000000000000000000000000000000000000000000000000 DUP2 MSTORE PUSH1 0x4 ADD PUSH1 0x40 MLOAD DUP1 SWAP2 SUB SWAP1 REVERT JUMPDEST PUSH0 PUSH1 0x2 PUSH0 CALLER PUSH20 0xFFFFFFFFFFFFFFFFFFFFFFFFFFFFFFFFFFFFFFFF AND PUSH20 0xFFFFFFFFFFFFFFFFFFFFFFFFFFFFFFFFFFFFFFFF AND DUP2 MSTORE PUSH1 0x20 ADD SWAP1 DUP2 MSTORE PUSH1 0x20 ADD PUSH0 KECCAK256 DUP2 SWAP1 SSTORE POP PUSH0 PUSH1 0x3 PUSH0 CALLER PUSH20 0xFFFFFFFFFFFFFFFFFFFFFFFFFFFFFFFFFFFFFFFF AND PUSH20 0xFFFFFFFFFFFFFFFFFFFFFFFFFFFFFFFFFFFFFFFF AND DUP2 MSTORE PUSH1 0x20 ADD SWAP1 DUP2 MSTORE PUSH1 0x20 ADD PUSH0 KECCAK256 DUP2 SWAP1 SSTORE POP PUSH0 PUSH1 0x4 PUSH0 CALLER PUSH20 0xFFFFFFFFFFFFFFFFFFFFFFFFFFFFFFFFFFFFFFFF AND PUSH20 0xFFFFFFFFFFFFFFFFFFFFFFFFFFFFFFFFFFFFFFFF AND DUP2 MSTORE PUSH1 0x20 ADD SWAP1 DUP2 MSTORE PUSH1 0x20 ADD PUSH0 KECCAK256 DUP2 SWAP1 SSTORE POP PUSH1 0x40 MLOAD DUP1 PUSH1 0x40 ADD PUSH1 0x40 MSTORE DUP1 PUSH1 0x7 DUP2 MSTORE PUSH1 0x20 ADD PUSH32 0x5375636365737300000000000000000000000000000000000000000000000000 DUP2 MSTORE POP SWAP4 POP POP POP POP SWAP1 JUMP JUMPDEST PUSH1 0x60 DUP3 PUSH0 DUP2 SUB PUSH2 0x7DD JUMPI PUSH1 0x40 MLOAD PUSH32 0x9B677FA000000000000000000000000000000000000000000000000000000000 DUP2 MSTORE PUSH1 0x4 ADD PUSH1 0x40 MLOAD DUP1 SWAP2 SUB SWAP1 REVERT JUMPDEST PUSH2 0x12C DUP5 LT ISZERO PUSH2 0x822 JUMPI PUSH1 0x40 MLOAD PUSH32 0x8C379A000000000000000000000000000000000000000000000000000000000 DUP2 MSTORE PUSH1 0x4 ADD PUSH2 0x819 SWAP1 PUSH2 0x11C2 JUMP JUMPDEST PUSH1 0x40 MLOAD DUP1 SWAP2 SUB SWAP1 REVERT JUMPDEST PUSH1 0x3 DUP4 PUSH2 0xFFFF AND EQ DUP1 PUSH2 0x839 JUMPI POP PUSH1 0x6 DUP4 PUSH2 0xFFFF AND EQ JUMPDEST DUP1 PUSH2 0x848 JUMPI POP PUSH1 0xC DUP4 PUSH2 0xFFFF AND EQ JUMPDEST PUSH2 0x887 JUMPI PUSH1 0x40 MLOAD PUSH32 0x8C379A000000000000000000000000000000000000000000000000000000000 DUP2 MSTORE PUSH1 0x4 ADD PUSH2 0x87E SWAP1 PUSH2 0x1250 JUMP JUMPDEST PUSH1 0x40 MLOAD DUP1 SWAP2 SUB SWAP1 REVERT JUMPDEST PUSH0 TIMESTAMP SWAP1 POP PUSH0 PUSH1 0x3 DUP6 PUSH2 0xFFFF AND SUB PUSH2 0x8B1 JUMPI PUSH3 0x76A700 SWAP1 POP DUP1 DUP3 PUSH2 0x8AA SWAP2 SWAP1 PUSH2 0x1089 JUMP JUMPDEST SWAP2 POP PUSH2 0x93D JUMP JUMPDEST PUSH1 0x6 DUP6 PUSH2 0xFFFF AND SUB PUSH2 0x8D6 JUMPI PUSH3 0xED4E00 SWAP1 POP DUP1 DUP3 PUSH2 0x8CF SWAP2 SWAP1 PUSH2 0x1089 JUMP JUMPDEST SWAP2 POP PUSH2 0x93C JUMP JUMPDEST PUSH1 0xC DUP6 PUSH2 0xFFFF AND SUB PUSH2 0x8FC JUMPI PUSH4 0x1DA9C00 SWAP1 POP DUP1 DUP3 PUSH2 0x8F5 SWAP2 SWAP1 PUSH2 0x1089 JUMP JUMPDEST SWAP2 POP PUSH2 0x93B JUMP JUMPDEST PUSH1 0x40 MLOAD DUP1 PUSH1 0x40 ADD PUSH1 0x40 MSTORE DUP1 PUSH1 0x1F DUP2 MSTORE PUSH1 0x20 ADD PUSH32 0x5468652070726F76696465642074696D65206973206E6F742076616C69642E00 DUP2 MSTORE POP SWAP4 POP POP POP PUSH2 0xB2C JUMP JUMPDEST JUMPDEST JUMPDEST DUP6 PUSH1 0x2 PUSH0 CALLER PUSH20 0xFFFFFFFFFFFFFFFFFFFFFFFFFFFFFFFFFFFFFFFF AND PUSH20 0xFFFFFFFFFFFFFFFFFFFFFFFFFFFFFFFFFFFFFFFF AND DUP2 MSTORE PUSH1 0x20 ADD SWAP1 DUP2 MSTORE PUSH1 0x20 ADD PUSH0 KECCAK256 PUSH0 DUP3 DUP3 SLOAD PUSH2 0x989 SWAP2 SWAP1 PUSH2 0x1089 JUMP JUMPDEST SWAP3 POP POP DUP2 SWAP1 SSTORE POP PUSH0 PUSH1 0x1 PUSH0 SWAP1 SLOAD SWAP1 PUSH2 0x100 EXP SWAP1 DIV PUSH20 0xFFFFFFFFFFFFFFFFFFFFFFFFFFFFFFFFFFFFFFFF AND PUSH20 0xFFFFFFFFFFFFFFFFFFFFFFFFFFFFFFFFFFFFFFFF AND PUSH4 0x23B872DD CALLER ADDRESS DUP11 PUSH1 0x40 MLOAD DUP5 PUSH4 0xFFFFFFFF AND PUSH1 0xE0 SHL DUP2 MSTORE PUSH1 0x4 ADD PUSH2 0x9EF SWAP4 SWAP3 SWAP2 SWAP1 PUSH2 0x126E JUMP JUMPDEST PUSH1 0x20 PUSH1 0x40 MLOAD DUP1 DUP4 SUB DUP2 PUSH0 DUP8 GAS CALL ISZERO DUP1 ISZERO PUSH2 0xA0B JUMPI RETURNDATASIZE PUSH0 DUP1 RETURNDATACOPY RETURNDATASIZE PUSH0 REVERT JUMPDEST POP POP POP POP PUSH1 0x40 MLOAD RETURNDATASIZE PUSH1 0x1F NOT PUSH1 0x1F DUP3 ADD AND DUP3 ADD DUP1 PUSH1 0x40 MSTORE POP DUP2 ADD SWAP1 PUSH2 0xA2F SWAP2 SWAP1 PUSH2 0x1127 JUMP JUMPDEST SWAP1 POP DUP1 PUSH2 0xA68 JUMPI PUSH1 0x40 MLOAD PUSH32 0xEB4C684700000000000000000000000000000000000000000000000000000000 DUP2 MSTORE PUSH1 0x4 ADD PUSH1 0x40 MLOAD DUP1 SWAP2 SUB SWAP1 REVERT JUMPDEST DUP3 PUSH1 0x3 PUSH0 CALLER PUSH20 0xFFFFFFFFFFFFFFFFFFFFFFFFFFFFFFFFFFFFFFFF AND PUSH20 0xFFFFFFFFFFFFFFFFFFFFFFFFFFFFFFFFFFFFFFFF AND DUP2 MSTORE PUSH1 0x20 ADD SWAP1 DUP2 MSTORE PUSH1 0x20 ADD PUSH0 KECCAK256 DUP2 SWAP1 SSTORE POP DUP6 PUSH2 0xFFFF AND PUSH1 0x4 PUSH0 CALLER PUSH20 0xFFFFFFFFFFFFFFFFFFFFFFFFFFFFFFFFFFFFFFFF AND PUSH20 0xFFFFFFFFFFFFFFFFFFFFFFFFFFFFFFFFFFFFFFFF AND DUP2 MSTORE PUSH1 0x20 ADD SWAP1 DUP2 MSTORE PUSH1 0x20 ADD PUSH0 KECCAK256 DUP2 SWAP1 SSTORE POP PUSH1 0x40 MLOAD DUP1 PUSH1 0x40 ADD PUSH1 0x40 MSTORE DUP1 PUSH1 0xB DUP2 MSTORE PUSH1 0x20 ADD PUSH32 0x7375636365737366756C6C000000000000000000000000000000000000000000 DUP2 MSTORE POP SWAP5 POP POP POP POP JUMPDEST POP SWAP3 SWAP2 POP POP JUMP JUMPDEST PUSH1 0x3 PUSH1 0x20 MSTORE DUP1 PUSH0 MSTORE PUSH1 0x40 PUSH0 KECCAK256 PUSH0 SWAP2 POP SWAP1 POP SLOAD DUP2 JUMP JUMPDEST PUSH1 0x4 PUSH1 0x20 MSTORE DUP1 PUSH0 MSTORE PUSH1 0x40 PUSH0 KECCAK256 PUSH0 SWAP2 POP SWAP1 POP SLOAD DUP2 JUMP JUMPDEST PUSH0 PUSH1 0x1 PUSH0 SWAP1 SLOAD SWAP1 PUSH2 0x100 EXP SWAP1 DIV PUSH20 0xFFFFFFFFFFFFFFFFFFFFFFFFFFFFFFFFFFFFFFFF AND PUSH20 0xFFFFFFFFFFFFFFFFFFFFFFFFFFFFFFFFFFFFFFFF AND PUSH4 0x70A08231 DUP4 PUSH1 0x40 MLOAD DUP3 PUSH4 0xFFFFFFFF AND PUSH1 0xE0 SHL DUP2 MSTORE PUSH1 0x4 ADD PUSH2 0xBB8 SWAP2 SWAP1 PUSH2 0x12A3 JUMP JUMPDEST PUSH1 0x20 PUSH1 0x40 MLOAD DUP1 DUP4 SUB DUP2 DUP7 GAS STATICCALL ISZERO DUP1 ISZERO PUSH2 0xBD3 JUMPI RETURNDATASIZE PUSH0 DUP1 RETURNDATACOPY RETURNDATASIZE PUSH0 REVERT JUMPDEST POP POP POP POP PUSH1 0x40 MLOAD RETURNDATASIZE PUSH1 0x1F NOT PUSH1 0x1F DUP3 ADD AND DUP3 ADD DUP1 PUSH1 0x40 MSTORE POP DUP2 ADD SWAP1 PUSH2 0xBF7 SWAP2 SWAP1 PUSH2 0x12D0 JUMP JUMPDEST SWAP1 POP SWAP2 SWAP1 POP JUMP JUMPDEST PUSH1 0x2 PUSH1 0x20 MSTORE DUP1 PUSH0 MSTORE PUSH1 0x40 PUSH0 KECCAK256 PUSH0 SWAP2 POP SWAP1 POP SLOAD DUP2 JUMP JUMPDEST PUSH1 0x1 PUSH0 SWAP1 SLOAD SWAP1 PUSH2 0x100 EXP SWAP1 DIV PUSH20 0xFFFFFFFFFFFFFFFFFFFFFFFFFFFFFFFFFFFFFFFF AND DUP2 JUMP JUMPDEST PUSH0 DUP1 REVERT JUMPDEST PUSH0 PUSH20 0xFFFFFFFFFFFFFFFFFFFFFFFFFFFFFFFFFFFFFFFF DUP3 AND SWAP1 POP SWAP2 SWAP1 POP JUMP JUMPDEST PUSH0 PUSH2 0xC65 DUP3 PUSH2 0xC3C JUMP JUMPDEST SWAP1 POP SWAP2 SWAP1 POP JUMP JUMPDEST PUSH2 0xC75 DUP2 PUSH2 0xC5B JUMP JUMPDEST DUP2 EQ PUSH2 0xC7F JUMPI PUSH0 DUP1 REVERT JUMPDEST POP JUMP JUMPDEST PUSH0 DUP2 CALLDATALOAD SWAP1 POP PUSH2 0xC90 DUP2 PUSH2 0xC6C JUMP JUMPDEST SWAP3 SWAP2 POP POP JUMP JUMPDEST PUSH0 PUSH1 0x20 DUP3 DUP5 SUB SLT ISZERO PUSH2 0xCAB JUMPI PUSH2 0xCAA PUSH2 0xC38 JUMP JUMPDEST JUMPDEST PUSH0 PUSH2 0xCB8 DUP5 DUP3 DUP6 ADD PUSH2 0xC82 JUMP JUMPDEST SWAP2 POP POP SWAP3 SWAP2 POP POP JUMP JUMPDEST PUSH0 DUP2 SWAP1 POP SWAP2 SWAP1 POP JUMP JUMPDEST PUSH2 0xCD3 DUP2 PUSH2 0xCC1 JUMP JUMPDEST DUP3 MSTORE POP POP JUMP JUMPDEST PUSH0 PUSH1 0x20 DUP3 ADD SWAP1 POP PUSH2 0xCEC PUSH0 DUP4 ADD DUP5 PUSH2 0xCCA JUMP JUMPDEST SWAP3 SWAP2 POP POP JUMP JUMPDEST PUSH0 DUP2 MLOAD SWAP1 POP SWAP2 SWAP1 POP JUMP JUMPDEST PUSH0 DUP3 DUP3 MSTORE PUSH1 0x20 DUP3 ADD SWAP1 POP SWAP3 SWAP2 POP POP JUMP JUMPDEST DUP3 DUP2 DUP4 MCOPY PUSH0 DUP4 DUP4 ADD MSTORE POP POP POP JUMP JUMPDEST PUSH0 PUSH1 0x1F NOT PUSH1 0x1F DUP4 ADD AND SWAP1 POP SWAP2 SWAP1 POP JUMP JUMPDEST PUSH0 PUSH2 0xD34 DUP3 PUSH2 0xCF2 JUMP JUMPDEST PUSH2 0xD3E DUP2 DUP6 PUSH2 0xCFC JUMP JUMPDEST SWAP4 POP PUSH2 0xD4E DUP2 DUP6 PUSH1 0x20 DUP7 ADD PUSH2 0xD0C JUMP JUMPDEST PUSH2 0xD57 DUP2 PUSH2 0xD1A JUMP JUMPDEST DUP5 ADD SWAP2 POP POP SWAP3 SWAP2 POP POP JUMP JUMPDEST PUSH0 PUSH1 0x20 DUP3 ADD SWAP1 POP DUP2 DUP2 SUB PUSH0 DUP4 ADD MSTORE PUSH2 0xD7A DUP2 DUP5 PUSH2 0xD2A JUMP JUMPDEST SWAP1 POP SWAP3 SWAP2 POP POP JUMP JUMPDEST PUSH2 0xD8B DUP2 PUSH2 0xCC1 JUMP JUMPDEST DUP2 EQ PUSH2 0xD95 JUMPI PUSH0 DUP1 REVERT JUMPDEST POP JUMP JUMPDEST PUSH0 DUP2 CALLDATALOAD SWAP1 POP PUSH2 0xDA6 DUP2 PUSH2 0xD82 JUMP JUMPDEST SWAP3 SWAP2 POP POP JUMP JUMPDEST PUSH0 PUSH2 0xFFFF DUP3 AND SWAP1 POP SWAP2 SWAP1 POP JUMP JUMPDEST PUSH2 0xDC2 DUP2 PUSH2 0xDAC JUMP JUMPDEST DUP2 EQ PUSH2 0xDCC JUMPI PUSH0 DUP1 REVERT JUMPDEST POP JUMP JUMPDEST PUSH0 DUP2 CALLDATALOAD SWAP1 POP PUSH2 0xDDD DUP2 PUSH2 0xDB9 JUMP JUMPDEST SWAP3 SWAP2 POP POP JUMP JUMPDEST PUSH0 DUP1 PUSH1 0x40 DUP4 DUP6 SUB SLT ISZERO PUSH2 0xDF9 JUMPI PUSH2 0xDF8 PUSH2 0xC38 JUMP JUMPDEST JUMPDEST PUSH0 PUSH2 0xE06 DUP6 DUP3 DUP7 ADD PUSH2 0xD98 JUMP JUMPDEST SWAP3 POP POP PUSH1 0x20 PUSH2 0xE17 DUP6 DUP3 DUP7 ADD PUSH2 0xDCF JUMP JUMPDEST SWAP2 POP POP SWAP3 POP SWAP3 SWAP1 POP JUMP JUMPDEST PUSH0 DUP2 SWAP1 POP SWAP2 SWAP1 POP JUMP JUMPDEST PUSH0 PUSH2 0xE44 PUSH2 0xE3F PUSH2 0xE3A DUP5 PUSH2 0xC3C JUMP JUMPDEST PUSH2 0xE21 JUMP JUMPDEST PUSH2 0xC3C JUMP JUMPDEST SWAP1 POP SWAP2 SWAP1 POP JUMP JUMPDEST PUSH0 PUSH2 0xE55 DUP3 PUSH2 0xE2A JUMP JUMPDEST SWAP1 POP SWAP2 SWAP1 POP JUMP JUMPDEST PUSH0 PUSH2 0xE66 DUP3 PUSH2 0xE4B JUMP JUMPDEST SWAP1 POP SWAP2 SWAP1 POP JUMP JUMPDEST PUSH2 0xE76 DUP2 PUSH2 0xE5C JUMP JUMPDEST DUP3 MSTORE POP POP JUMP JUMPDEST PUSH0 PUSH1 0x20 DUP3 ADD SWAP1 POP PUSH2 0xE8F PUSH0 DUP4 ADD DUP5 PUSH2 0xE6D JUMP JUMPDEST SWAP3 SWAP2 POP POP JUMP JUMPDEST PUSH32 0x596F752068617665206E6F7420656E6F7567682062616C616E63650000000000 PUSH0 DUP3 ADD MSTORE POP JUMP JUMPDEST PUSH0 PUSH2 0xEC9 PUSH1 0x1B DUP4 PUSH2 0xCFC JUMP JUMPDEST SWAP2 POP PUSH2 0xED4 DUP3 PUSH2 0xE95 JUMP JUMPDEST PUSH1 0x20 DUP3 ADD SWAP1 POP SWAP2 SWAP1 POP JUMP JUMPDEST PUSH0 PUSH1 0x20 DUP3 ADD SWAP1 POP DUP2 DUP2 SUB PUSH0 DUP4 ADD MSTORE PUSH2 0xEF6 DUP2 PUSH2 0xEBD JUMP JUMPDEST SWAP1 POP SWAP2 SWAP1 POP JUMP JUMPDEST PUSH32 0x596F7572207374616B696E672074696D65206973206E6F7420636F6D706C6574 PUSH0 DUP3 ADD MSTORE PUSH32 0x6564000000000000000000000000000000000000000000000000000000000000 PUSH1 0x20 DUP3 ADD MSTORE POP JUMP JUMPDEST PUSH0 PUSH2 0xF57 PUSH1 0x22 DUP4 PUSH2 0xCFC JUMP JUMPDEST SWAP2 POP PUSH2 0xF62 DUP3 PUSH2 0xEFD JUMP JUMPDEST PUSH1 0x40 DUP3 ADD SWAP1 POP SWAP2 SWAP1 POP JUMP JUMPDEST PUSH0 PUSH1 0x20 DUP3 ADD SWAP1 POP DUP2 DUP2 SUB PUSH0 DUP4 ADD MSTORE PUSH2 0xF84 DUP2 PUSH2 0xF4B JUMP JUMPDEST SWAP1 POP SWAP2 SWAP1 POP JUMP JUMPDEST PUSH32 0x4E487B7100000000000000000000000000000000000000000000000000000000 PUSH0 MSTORE PUSH1 0x11 PUSH1 0x4 MSTORE PUSH1 0x24 PUSH0 REVERT JUMPDEST PUSH0 PUSH2 0xFC2 DUP3 PUSH2 0xCC1 JUMP JUMPDEST SWAP2 POP PUSH2 0xFCD DUP4 PUSH2 0xCC1 JUMP JUMPDEST SWAP3 POP DUP3 DUP3 SUB SWAP1 POP DUP2 DUP2 GT ISZERO PUSH2 0xFE5 JUMPI PUSH2 0xFE4 PUSH2 0xF8B JUMP JUMPDEST JUMPDEST SWAP3 SWAP2 POP POP JUMP JUMPDEST PUSH0 PUSH2 0xFF5 DUP3 PUSH2 0xCC1 JUMP JUMPDEST SWAP2 POP PUSH2 0x1000 DUP4 PUSH2 0xCC1 JUMP JUMPDEST SWAP3 POP DUP3 DUP3 MUL PUSH2 0x100E DUP2 PUSH2 0xCC1 JUMP JUMPDEST SWAP2 POP DUP3 DUP3 DIV DUP5 EQ DUP4 ISZERO OR PUSH2 0x1025 JUMPI PUSH2 0x1024 PUSH2 0xF8B JUMP JUMPDEST JUMPDEST POP SWAP3 SWAP2 POP POP JUMP JUMPDEST PUSH32 0x4E487B7100000000000000000000000000000000000000000000000000000000 PUSH0 MSTORE PUSH1 0x12 PUSH1 0x4 MSTORE PUSH1 0x24 PUSH0 REVERT JUMPDEST PUSH0 PUSH2 0x1063 DUP3 PUSH2 0xCC1 JUMP JUMPDEST SWAP2 POP PUSH2 0x106E DUP4 PUSH2 0xCC1 JUMP JUMPDEST SWAP3 POP DUP3 PUSH2 0x107E JUMPI PUSH2 0x107D PUSH2 0x102C JUMP JUMPDEST JUMPDEST DUP3 DUP3 DIV SWAP1 POP SWAP3 SWAP2 POP POP JUMP JUMPDEST PUSH0 PUSH2 0x1093 DUP3 PUSH2 0xCC1 JUMP JUMPDEST SWAP2 POP PUSH2 0x109E DUP4 PUSH2 0xCC1 JUMP JUMPDEST SWAP3 POP DUP3 DUP3 ADD SWAP1 POP DUP1 DUP3 GT ISZERO PUSH2 0x10B6 JUMPI PUSH2 0x10B5 PUSH2 0xF8B JUMP JUMPDEST JUMPDEST SWAP3 SWAP2 POP POP JUMP JUMPDEST PUSH2 0x10C5 DUP2 PUSH2 0xC5B JUMP JUMPDEST DUP3 MSTORE POP POP JUMP JUMPDEST PUSH0 PUSH1 0x40 DUP3 ADD SWAP1 POP PUSH2 0x10DE PUSH0 DUP4 ADD DUP6 PUSH2 0x10BC JUMP JUMPDEST PUSH2 0x10EB PUSH1 0x20 DUP4 ADD DUP5 PUSH2 0xCCA JUMP JUMPDEST SWAP4 SWAP3 POP POP POP JUMP JUMPDEST PUSH0 DUP2 ISZERO ISZERO SWAP1 POP SWAP2 SWAP1 POP JUMP JUMPDEST PUSH2 0x1106 DUP2 PUSH2 0x10F2 JUMP JUMPDEST DUP2 EQ PUSH2 0x1110 JUMPI PUSH0 DUP1 REVERT JUMPDEST POP JUMP JUMPDEST PUSH0 DUP2 MLOAD SWAP1 POP PUSH2 0x1121 DUP2 PUSH2 0x10FD JUMP JUMPDEST SWAP3 SWAP2 POP POP JUMP JUMPDEST PUSH0 PUSH1 0x20 DUP3 DUP5 SUB SLT ISZERO PUSH2 0x113C JUMPI PUSH2 0x113B PUSH2 0xC38 JUMP JUMPDEST JUMPDEST PUSH0 PUSH2 0x1149 DUP5 DUP3 DUP6 ADD PUSH2 0x1113 JUMP JUMPDEST SWAP2 POP POP SWAP3 SWAP2 POP POP JUMP JUMPDEST PUSH32 0x596F75206D7573742070726F766964652061746C656173742033303020746F6B PUSH0 DUP3 ADD MSTORE PUSH32 0x656E730000000000000000000000000000000000000000000000000000000000 PUSH1 0x20 DUP3 ADD MSTORE POP JUMP JUMPDEST PUSH0 PUSH2 0x11AC PUSH1 0x23 DUP4 PUSH2 0xCFC JUMP JUMPDEST SWAP2 POP PUSH2 0x11B7 DUP3 PUSH2 0x1152 JUMP JUMPDEST PUSH1 0x40 DUP3 ADD SWAP1 POP SWAP2 SWAP1 POP JUMP JUMPDEST PUSH0 PUSH1 0x20 DUP3 ADD SWAP1 POP DUP2 DUP2 SUB PUSH0 DUP4 ADD MSTORE PUSH2 0x11D9 DUP2 PUSH2 0x11A0 JUMP JUMPDEST SWAP1 POP SWAP2 SWAP1 POP JUMP JUMPDEST PUSH32 0x5468652070726F76696465642074696D65206973206E6F742076616C69642E20 PUSH0 DUP3 ADD MSTORE PUSH32 0x6974206D75737420626520332C2036206F722031320000000000000000000000 PUSH1 0x20 DUP3 ADD MSTORE POP JUMP JUMPDEST PUSH0 PUSH2 0x123A PUSH1 0x35 DUP4 PUSH2 0xCFC JUMP JUMPDEST SWAP2 POP PUSH2 0x1245 DUP3 PUSH2 0x11E0 JUMP JUMPDEST PUSH1 0x40 DUP3 ADD SWAP1 POP SWAP2 SWAP1 POP JUMP JUMPDEST PUSH0 PUSH1 0x20 DUP3 ADD SWAP1 POP DUP2 DUP2 SUB PUSH0 DUP4 ADD MSTORE PUSH2 0x1267 DUP2 PUSH2 0x122E JUMP JUMPDEST SWAP1 POP SWAP2 SWAP1 POP JUMP JUMPDEST PUSH0 PUSH1 0x60 DUP3 ADD SWAP1 POP PUSH2 0x1281 PUSH0 DUP4 ADD DUP7 PUSH2 0x10BC JUMP JUMPDEST PUSH2 0x128E PUSH1 0x20 DUP4 ADD DUP6 PUSH2 0x10BC JUMP JUMPDEST PUSH2 0x129B PUSH1 0x40 DUP4 ADD DUP5 PUSH2 0xCCA JUMP JUMPDEST SWAP5 SWAP4 POP POP POP POP JUMP JUMPDEST PUSH0 PUSH1 0x20 DUP3 ADD SWAP1 POP PUSH2 0x12B6 PUSH0 DUP4 ADD DUP5 PUSH2 0x10BC JUMP JUMPDEST SWAP3 SWAP2 POP POP JUMP JUMPDEST PUSH0 DUP2 MLOAD SWAP1 POP PUSH2 0x12CA DUP2 PUSH2 0xD82 JUMP JUMPDEST SWAP3 SWAP2 POP POP JUMP JUMPDEST PUSH0 PUSH1 0x20 DUP3 DUP5 SUB SLT ISZERO PUSH2 0x12E5 JUMPI PUSH2 0x12E4 PUSH2 0xC38 JUMP JUMPDEST JUMPDEST PUSH0 PUSH2 0x12F2 DUP5 DUP3 DUP6 ADD PUSH2 0x12BC JUMP JUMPDEST SWAP2 POP POP SWAP3 SWAP2 POP POP JUMP INVALID LOG2 PUSH5 0x6970667358 0x22 SLT KECCAK256 SIGNEXTEND DUP11 RETURNDATASIZE SLOAD DUP8 0x4C CALLER 0xC5 SHL 0xB3 0xF 0xB8 PUSH3 0x21E1D1 0xD8 0xDF MUL 0xAC SWAP11 SUB LOG0 0xB9 BLOBBASEFEE 0xC6 LOG1 SLOAD DUP10 0x21 0xB0 MSTORE8 PUSH5 0x736F6C6343 STOP ADDMOD BYTE STOP CALLER "
				},
				"gasEstimates": {
					"creation": {
						"codeDepositCost": "982600",
						"executionCost": "infinite",
						"totalCost": "infinite"
					},
					"external": {
						"checkBalance(address)": "infinite",
						"getStaked(address)": "2830",
						"s_balances(address)": "2846",
						"s_minStackTime(address)": "2802",
						"s_stakingToken()": "infinite",
						"s_unstackTime(address)": "2869",
						"stake(uint256,uint16)": "infinite",
						"withdraw()": "infinite"
					}
				},
				"methodIdentifiers": {
					"checkBalance(address)": "5f515226",
					"getStaked(address)": "399080ec",
					"s_balances(address)": "ab32eb69",
					"s_minStackTime(address)": "58fe020c",
					"s_stakingToken()": "adca9b72",
					"s_unstackTime(address)": "483174b6",
					"stake(uint256,uint16)": "42ea02c1",
					"withdraw()": "3ccfd60b"
				}
			},
			"storageLayout": {
				"storage": [
					{
						"astId": 10,
						"contract": "stacking.sol:Staking",
						"label": "_status",
						"offset": 0,
						"slot": "0",
						"type": "t_uint256"
					},
					{
						"astId": 157,
						"contract": "stacking.sol:Staking",
						"label": "s_stakingToken",
						"offset": 0,
						"slot": "1",
						"type": "t_contract(IERC20)142"
					},
					{
						"astId": 161,
						"contract": "stacking.sol:Staking",
						"label": "s_balances",
						"offset": 0,
						"slot": "2",
						"type": "t_mapping(t_address,t_uint256)"
					},
					{
						"astId": 165,
						"contract": "stacking.sol:Staking",
						"label": "s_unstackTime",
						"offset": 0,
						"slot": "3",
						"type": "t_mapping(t_address,t_uint256)"
					},
					{
						"astId": 169,
						"contract": "stacking.sol:Staking",
						"label": "s_minStackTime",
						"offset": 0,
						"slot": "4",
						"type": "t_mapping(t_address,t_uint256)"
					}
				],
				"types": {
					"t_address": {
						"encoding": "inplace",
						"label": "address",
						"numberOfBytes": "20"
					},
					"t_contract(IERC20)142": {
						"encoding": "inplace",
						"label": "contract IERC20",
						"numberOfBytes": "20"
					},
					"t_mapping(t_address,t_uint256)": {
						"encoding": "mapping",
						"key": "t_address",
						"label": "mapping(address => uint256)",
						"numberOfBytes": "32",
						"value": "t_uint256"
					},
					"t_uint256": {
						"encoding": "inplace",
						"label": "uint256",
						"numberOfBytes": "32"
					}
				}
			},
			"userdoc": {
				"kind": "user",
				"methods": {},
				"version": 1
			}
		}
	}
}